:020000040000fa
:080000000002040000000000f2
:020000040000fa
:100400006f8620000e7f24000e018800000000008f
:100410000c00070060772000010020001100070099
:10042000000020000000e000020032000000020096
:10043000000000003e060200000000000040da005c
:100440000000fe004440a900000020000000e00081
:100450000300320000002000a00188004440a800f2
:100460000000060091018800800078000000eb0089
:1004700015003700e280400032a0b4009101ba00bc
:10048000e280400032a0b4009102ba00e280400055
:1004900032a0b4000002eb00472bde00f507b200eb
:1004a000602ce10004003a000059eb008301e900f0
:1004b000fdff3e00040037006128e100010032002a
:1004c0000082eb00040007001101ba000200e00006
:1004d000e8ff3a00000006003159ba008301e90044
:1004e0000c0032002159ba008301e90008003200f3
:1004f0000400e00003003a00e280400032a0b400b3
:10050000f5ff370011d9ba008301e900faff3a007c
:100510008100e800e180400032a0b4000000060045
:100520000040da000000fe00889fbe008a9fbe00e7
:10053000010578000100e0000400350008003c00df
:100540000000e000200032000500370060001000cd
:10055000e080180002003b0001f02c001a00370078
:100560000004be006011b8006b0920000982cf00b2
:10057000020039000882cf000441b00069425200f5
:100580000e00320008003b008281710061016400ae
:100590008904d1000884d3008b05e8000442e800f8
:1005a000f9ff3a00050037000804440089844c0034
:1005b0008b05e9000442e900fbff3a005a000700fe
:1005c0000af0a70001f0a0004f05be004f04be00d6
:1005d00000000600889fbe008a9fbe008c1f780026
:1005e000770007007e00330003866c006450e10052
:1005f000240032006420e100270032006150e10055
:10060000220032006120e100210032008b8542008f
:10061000eb07b1000134b800003ab800080442000a
:1006200089844a00013ab8000030b8008880400050
:1006300009014a00040033000000400081804800a6
:10064000020149008b05e900c909dd008301700042
:100650000100320013002000c814de004814dd0041
:100660004709de001200b200c808de0008847000ee
:100670002d00070001f0a1000cf0a70001f0a00080
:10068000600037006120e100620032000801be0016
:100690000200be00f7ff37006150e100fcff3a00a6
:1006a0005c0037000001be005d0007000470a70079
:1006b00003f0a1006509b100160032000d003500fd
:1006c0006828e10006003500f0ff2f00f1ff270049
:1006d0000300e00013003b000100280000000500bb
:1006e00000004000818048008502e900fcff3a00dc
:1006f00008003700f88f420002003c008000eb0049
:10070000000005008100d1000080d3008502e800d0
:10071000fcff3a000300e00002003b006000100014
:10072000e080180000000600810020006180550074
:100730000b003d000b00200061fe2f000100e100d6
:100740001d00340082817100610164008904d100c0
:100750000884d3000000e800faff3a00710020008e
:1007600061006400030070000200600009003200b4
:1007700061044400e0844c000988a50005003200b3
:100780008b05e8006808e10002003a008904d10006
:100790000884d300f20f20000258e10005003d005c
:1007a000c75ddd00f907b200898075000800780098
:1007b000000006000bf827008b0078000000050001
:1007c0000004be00160007000003be000405be00c2
:1007d0000200be0012000700844f750000000600f2
:1007e0000200be006450e100050036006420e10014
:1007f000020036000968a30001003a000800be00ac
:100800000160a0004f0678004f05be004f04be00f7
:1008100000000600f0ff2f00f1ff2700f9ff37006e
:10082000c70ade00f107b200f50fb200080032007f
:10083000e1cf4200020032000170a0002400050058
:10084000810f70000100320004080500440005001b
:10085000810f700002003a00140005008502e900d3
:100860000000400081c04800fcff3b000170a00078
:04087000240005005b
:020000040000fa
:0200000401f009
:04000c00f8ff0000f9
:020000040000fa
:0200000401f009
:040010007fff00006e
:020000040000fa
:1000080090020000900200009002000090020000a0
:100018009002000090020000900200009002000090
:100028009002000090020000900200003c050000d1
:100038009002000090020000900200009002000070
:100048009002000090020000900200009002000060
:100058009002000090020000900200009002000050
:100068009002000090020000900200009002000040
:100078009002000090020000900200009002000030
:100088009002000090020000900200009002000020
:100098009002000090020000900200009002000010
:1000a8009002000090020000900200009002000000
:1000b80090020000900200009002000090020000f0
:1000c80090020000900200009002000090020000e0
:1000d80090020000900200009002000090020000d0
:1000e80090020000900200009002000090020000c0
:1000f80090020000900200009002000090020000b0
:10010800900200009002000090020000900200009f
:10011800900200009002000090020000900200008f
:10012800900200009002000090020000900200007f
:10013800900200009002000090020000900200006f
:10014800900200009002000090020000900200005f
:10015800900200009002000090020000900200004f
:10016800900200009002000090020000900200003f
:10017800900200009002000090020000900200002f
:10018800900200009002000090020000900200001f
:10019800900200009002000090020000900200000f
:1001a80090020000900200009002000090020000ff
:1001b80090020000900200009002000090020000ef
:1001c80090020000900200009002000090020000df
:1001d80090020000900200009002000090020000cf
:1001e80090020000900200009002000090020000bf
:0801f8009002000090020000db
:020000040000fa
:10020800900200009002000090020000900200009e
:10021800900200009002000090020000900200008e
:100228009002000090020000900200003c050000cf
:10023800900200009002000090020000900200006e
:10024800900200009002000090020000900200005e
:10025800900200009002000090020000900200004e
:10026800900200009002000090020000900200003e
:10027800900200009002000090020000900200002e
:10028800900200009002000090020000900200001e
:10029800900200009002000090020000900200000e
:1002a80090020000900200009002000090020000fe
:1002b80090020000900200009002000090020000ee
:1002c80090020000900200009002000090020000de
:1002d80090020000900200009002000090020000ce
:1002e80090020000900200009002000090020000be
:1002f80090020000900200009002000090020000ae
:10030800900200009002000090020000900200009d
:10031800900200009002000090020000900200008d
:10032800900200009002000090020000900200007d
:10033800900200009002000090020000900200006d
:10034800900200009002000090020000900200005d
:10035800900200009002000090020000900200004d
:10036800900200009002000090020000900200003d
:10037800900200009002000090020000900200002d
:10038800900200009002000090020000900200001d
:10039800900200009002000090020000900200000d
:1003a80090020000900200009002000090020000fd
:1003b80090020000900200009002000090020000ed
:1003c80090020000900200009002000090020000dd
:1003d80090020000900200009002000090020000cd
:1003e80090020000900200009002000090020000bd
:0803f8009002000090020000d9
:020000040000fa
:100874000000fa0081e0a90042c0bf007f40600090
:1008840042e0b7000080fa00000006000000fa0011
:1008940042c0bf0001ceb3000140700042e0b70087
:1008a4000080fa00000006000400fa00000f78003f
:1008b400110798000000eb000080fa000000060019
:1008c4000600fa0010079800210798001e00900007
:1008d400ae00900001005000000f780010ff2f00c0
:1008e4009e0f100007003d00804280000000e000e1
:1008f40004003400804280000000e9008042880047
:100904000d003700f00020009e0f10000800340096
:1009140081428000f0072000808f500004003c00da
:10092400804280000000e800804288000200370016
:1009340080428000804288000000eb000080fa00c2
:10094400000006000800fa0020079800310798000c
:10095400ae0090003e009000008050001007980008
:100964001e009000cf80de00eefe07009242800061
:10097400a342800016ff070049ff0700000f78001c
:10098400a00020009e0f100003003400a0002000ef
:10099400000f78000500370060ff2f009e0f100045
:1009a40002003d0060ff2f00000f78001e00900041
:1009b400ef0f4000030035001e009000ef0f5000c1
:1009c40004003400804280001e0040008042880001
:1009d400020037008042800080428800804280000c
:1009e4000000e00003003d000000eb0080428800ae
:1009f400090037008142800000082000808f5000e9
:100a04000300340000082000804288000200370000
:100a140080428000804288000000eb000080fa00e1
:100a2400000006000200fa00000f7800a000200079
:100a3400000f780000082000a0118800100020009a
:100a4400a011880020002000a01188000000eb0005
:100a5400a011880080428000a011880033c2bf002a
:100a6400614060000004e000fcff32000080fa00f6
:100a7400000006003600f800809fbe00829fbe0082
:100a8400849fbe00869fbe000200fa00c4c2bf005d
:100a94000080fb004200de006140600000c0ea000c
:100aa40061406000614060004201dd00412c200093
:100ab40091407800b0cfb30000c0600002407000e5
:100ac400c4e2b70050c0b3008a000700d0428800d7
:100ad40040c0b30087000700e0428800e142800084
:100ae400d042800097ff07001e007800cdff07006a
:100af4008460a9000080fa004f03be004f02be00cc
:100b04004f01be004f00be003600f9000040060051
:100b14000800fa00300798000000eb002007980056
:100b2400140037000000eb00100798000a0037009b
:100b34000000eb00000f7800010037001e0fe800f2
:100b44003e0090009e0f1000fcff35001e00900038
:100b54000000e800100798009e009000703e2000fe
:100b6400808f5000f2ff34002e0090000000e80057
:100b740020079800ae009000703e2000808f500047
:100b8400e8ff34000000eb000080fa0000000600db
:100b94000000fa007b000700c042a900c082a9003f
:100ba40040012000daff0700c4c2bf000080fb0040
:100bb4004200de006140600000c0ea006140600065
:100bc400614060004201dd00412c2000914078002a
:100bd400b0cfb30000c0600002407000c4e2b700b0
:100be400c4c2bf000080fb004400de00614060001e
:100bf40000c0ea0061406000614060004401dd0023
:100c0400412c200091407800f0ceb30000c0600079
:100c140002407000c4e2b70040012000bcff07009e
:100c2400c4c2bf000080fb004200de0061406000df
:100c340000c0ea0061406000614060004201dd00e4
:100c4400412c200091407800b0cfb30000c0600078
:100c540002407000c4e2b7000cff07000a0007005e
:100c6400870007003700070001ff07000000eb00c2
:100c74000080fa00000006000000fa005c00070093
:100c8400c3ff0700ffff37000000fa002c83a90010
:100c94002ca3a9002143a80023c3bf007f40600008
:100ca40023e3b700013220009140780000ceb30066
:100cb40000c0700020e3b70028e3a90025e3a900e1
:100cc40030c0b30024e3b7005132200091407800d3
:100cd40000ceb30000c06000a040b30025e3b7001d
:100ce4002043a90021e3a8000000eb000080fa00e3
:100cf400000006000200fa00004f78002003a9005b
:100d04009e4078007fc060007f41600081322000f7
:100d14009140780000ceb30000c060000240700033
:100d240028e3b7002023a80020c3bf00614060006f
:100d34000004e000fcff3200001880000080fa008c
:100d4400000006000000fa003002a9000123200080
:100d54009140780090cfb30000c0600030e2b7004b
:100d640030a2a9003062a90030102000c011880010
:100d740031e2a8003342a8000000eb000080fa0032
:100d8400000006000000fa00113a8000f0fb2f007a
:100d9400008160006104200070052000237420009d
:100da400814978008049780082497800e16c20000c
:100db4009140780000ceb30000c060005040b30002
:100dc400cee6b700113a80000004200000817000d4
:100dd40061042000700520002374200081497800fc
:100de40080497800824978000080fa0000000600fb
:100df4000000fa0090022000303a880044c7bf0087
:100e0400f043b20044e7b7004174200091407800f9
:100e140000ceb30000c0600044e7b7001200200019
:100e240081072000a0092000337420008149780044
:100e34008049780082497800120020006104200073
:100e440070052000237420008149780080497800cf
:100e54008249780043c7bf000047b200f04f5000fa
:100e6400fcff3a0042c7bf000042b2000004e000a9
:100e7400fcff32000000eb000080fa0000000600d6
:100e84000000fa0005e1a9000421a90004c1a90099
:100e9400411020009140780000c3b30000c07000ee
:100ea40004e1b7000000eb0000088800a061200006
:100eb40010088800510a200091407800f0c8b3005f
:100ec40000c0600001c4b30001407000a5e0b70099
:100ed4008460a9009460a80005e1a8000000eb006c
:080ee4000080fa000000060086
:020000040000fa
:100eec00500800000a000000020000004000ae00a4
:100efc0047e13c00cdcccc003d0000005a0800007e
:100f0c000a0000000000000064080000020000005d
:080f1c000000000000000000cd
:00000001FF
