:020000040000fa
:080000000002040000000000f2
:020000040000fa
:10040000af8720000e7f24000e018800000000004e
:100410000c000700405720000100200011000700d9
:10042000000020000000e000020032000000020096
:10043000000000004e030200000000000040da004f
:100440000000fe004440a900000020000000e00081
:100450000300320000002000a00188004440a800f2
:100460000000060091018800800078000000eb0089
:1004700015003700e280400032a0b4009101ba00bc
:10048000e280400032a0b4009102ba00e280400055
:1004900032a0b4000002eb00472bde00f507b200eb
:1004a000602ce10004003a000059eb008301e900f0
:1004b000fdff3e00040037006128e100010032002a
:1004c0000082eb00040007001101ba000200e00006
:1004d000e8ff3a00000006003159ba008301e90044
:1004e0000c0032002159ba008301e90008003200f3
:1004f0000400e00003003a00e280400032a0b400b3
:10050000f5ff370011d9ba008301e900faff3a007c
:100510008100e800e180400032a0b4000000060045
:080520000040da000000fe00bb
:020000040000fa
:0200000401f009
:04000c00f8ff0000f9
:020000040000fa
:0200000401f009
:040010007fff00006e
:020000040000fa
:1000080090020000900200009002000090020000a0
:100018009002000090020000900200009002000090
:10002800900200009002000090020000b002000060
:100038009002000090020000900200009002000070
:100048009002000090020000900200009002000060
:100058009002000090020000900200009002000050
:100068009002000090020000900200009002000040
:100078009002000090020000900200009002000030
:100088009002000090020000900200009002000020
:100098009002000090020000900200009002000010
:1000a8009002000090020000900200009002000000
:1000b80090020000900200009002000090020000f0
:1000c80090020000900200009002000090020000e0
:1000d80090020000900200009002000090020000d0
:1000e80090020000900200009002000090020000c0
:1000f80090020000900200009002000090020000b0
:10010800900200009002000090020000900200009f
:10011800900200009002000090020000900200008f
:10012800900200009002000090020000900200007f
:10013800900200009002000090020000900200006f
:10014800900200009002000090020000900200005f
:10015800900200009002000090020000900200004f
:10016800900200009002000090020000900200003f
:10017800900200009002000090020000900200002f
:10018800900200009002000090020000900200001f
:10019800900200009002000090020000900200000f
:1001a80090020000900200009002000090020000ff
:1001b80090020000900200009002000090020000ef
:1001c80090020000900200009002000090020000df
:1001d80090020000900200009002000090020000cf
:1001e80090020000900200009002000090020000bf
:0801f8009002000090020000db
:020000040000fa
:10020800900200009002000090020000900200009e
:10021800900200009002000090020000900200008e
:10022800900200009002000090020000b00200005e
:10023800900200009002000090020000900200006e
:10024800900200009002000090020000900200005e
:10025800900200009002000090020000900200004e
:10026800900200009002000090020000900200003e
:10027800900200009002000090020000900200002e
:10028800900200009002000090020000900200001e
:10029800900200009002000090020000900200000e
:1002a80090020000900200009002000090020000fe
:1002b80090020000900200009002000090020000ee
:1002c80090020000900200009002000090020000de
:1002d80090020000900200009002000090020000ce
:1002e80090020000900200009002000090020000be
:1002f80090020000900200009002000090020000ae
:10030800900200009002000090020000900200009d
:10031800900200009002000090020000900200008d
:10032800900200009002000090020000900200007d
:10033800900200009002000090020000900200006d
:10034800900200009002000090020000900200005d
:10035800900200009002000090020000900200004d
:10036800900200009002000090020000900200003d
:10037800900200009002000090020000900200002d
:10038800900200009002000090020000900200001d
:10039800900200009002000090020000900200000d
:1003a80090020000900200009002000090020000fd
:1003b80090020000900200009002000090020000ed
:1003c80090020000900200009002000090020000dd
:1003d80090020000900200009002000090020000cd
:1003e80090020000900200009002000090020000bd
:0803f8009002000090020000d9
:020000040000fa
:100528000000fa0081e0a90042c0bf007f406000df
:1005380042e0b7000080fa00000006000000fa0060
:1005480042c0bf0001ceb3000140700042e0b700d6
:100558000080fa00000006003600f800809fbe0008
:10056800829fbe00849fbe00869fbe000000fa00e6
:100578000000eb0000088800c2c2bf000080fb003a
:100588004400de006140600000c0ea006140600095
:10059800614060004401dd00212c2000914078007a
:1005a800f0ceb30000c0600002407000c2e2b700a5
:1005b800100320002011880040c0b300f600070097
:1005c800f040880050c0b300f300070000418800e5
:1005d80060c0b300f00007001041880070c0b3008d
:1005e800ed0007002041880080c0b300ea00070042
:1005f800304188008460a9000080fa004f03be00e3
:100608004f02be004f01be004f00be003600f90089
:10061800004006000800fa00300798000000eb00d0
:1006280020079800140037000000eb00100798001e
:100638000a0037000000eb00000f780001003700c7
:100648001e0fe8003e0090009e0f1000fcff3500d2
:100658001e0090000000e800100798009e0090001f
:10066800703e2000808f5000f2ff34002e00900072
:100678000000e80020079800ae009000703e2000bf
:10068800808f5000e8ff34000000eb000080fa0083
:10069800000006000200fa00d30007000000eb008b
:1006a8000016880020032000daff0700c4c2bf003c
:1006b8000080fb004200de006140600000c0ea00ec
:1006c80061406000614060004201dd00412c200073
:1006d80091407800b0cfb30000c0600002407000c5
:1006e800c4e2b700c4c2bf000080fb004400de00c3
:1006f8006140600000c0ea00614060006140600045
:100708004401dd00412c200091407800f0ceb30078
:1007180000c0600002407000c4e2b700200320005f
:10072800bcff0700c4c2bf000080fb004200de001f
:100738006140600000c0ea00614060006140600004
:100748004201dd00412c200091407800b0cfb30079
:1007580000c0600002407000c4e2b700c4c2bf001d
:100768000080fb004400de006140600000c0ea0039
:1007780061406000614060004401dd00412c2000c0
:1007880091407800f0ceb30000c0600002407000d5
:10079800c4e2b700a0002000000f78003400070072
:1007a8006000070004000700b30007001e0fe80000
:1007b8001e0fe900fdff37000000fa002002a90023
:1007c800012220009140780090cfb30000c0600063
:1007d80020e2b70020a2a9002062a900000420009e
:1007e8004011880021e2a8002342a80022c2bf00cd
:1007f800f043b20022e2b700910a2000914078004d
:1008080000c7b30000c07000a9e0b7008560a90068
:100818009560a8003002a9000123200091407800cb
:1008280090cfb30000c0600030e2b70030a2a9004a
:100838003062a90000042000c011880031e2a8003d
:100848003342a800310b20009140780080cfb300dc
:1008580000c060005040b300b3e0b70087c0a900f3
:1008680097c0a8000000eb000080fa000000060016
:100878000000fa00113a8000f0fb2f0000816000b0
:10088800610420007005200023742000814978004d
:100898008049780082497800416a200091407800b8
:1008a80000ceb30000c06000b040b300a4e6b700bb
:1008b800616a20009140780000ceb30000c060005b
:1008c800d040b300a6e6b700c16c20009140780084
:1008d80000ceb30000c060003040b300cce6b700e3
:1008e800e16c20009140780000ceb30000c06000a9
:1008f8005040b300cee6b700113a80000004200053
:10090800008170006104200070052000237420001d
:100918008149780080497800824978000080fa008f
:10092800000006000000fa002c83a9002ca3a900ef
:100938002cc3a9002ce3a9002d03a9002143a8007a
:1009480023c3bf007f40600023e3b70001322000cb
:100958009140780000ceb30000c0700020e3b700db
:1009680028e3a90025e3a90030c0b30024e3b700b9
:10097800513220009140780000ceb30000c06000e2
:10098800a040b30025e3b7002043a90021e3a80055
:100998000080fa00000006000200fa00004f78000c
:1009a8002003a9009e4078007fc060007f4160005e
:1009b800813220009140780000ceb30000c0600072
:1009c8000240700028e3b7002023a80020c3bf001e
:1009d800614060000004e000fcff32000018800065
:1009e8000080fa00000006000000fa0090022000d3
:1009f800303a880044c7bf00f043b20044e7b7006c
:100a0800417420009140780000ceb30000c060001f
:100a180044e7b7001200200081072000a009200049
:100a28003374200081497800804978008249780031
:100a380012002000610420007005200023742000ab
:100a480081497800804978008249780043c7bf000f
:100a58000047b200f04f5000fcff3a0042c7bf0009
:100a68000042b2000004e000fcff32000000eb008e
:100a78000080fa00000006000000fa0005e1a90065
:100a88000421a90004c1a900411020009140780068
:100a980000c3b30000c0700004e1b7000000eb0021
:100aa80000088800f0ff270010088800510a20007d
:100ab80091407800f0c8b30000c0600001c4b300e2
:100ac80001407000a5e0b7008460a9009460a80008
:100ad80005e1a8000000eb000080fa000000060015
:020000040000fa
:100ae800660800001200000002000000000000007c
:100af80000000000000000000000000000000000ee
:100b0800000000000008000066000000000000006f
:100b1800780800000200000000000000000000004b
:00000001FF
