:020000040000fa
:080000000002040000000000f2
:020000040000fa
:100400008f2924000e7f24000e01880000000000c8
:100410000c000700e04d2000010020001100070043
:10042000000020000000e000020032000000020096
:10043000000000009e030200000000000040da00ff
:100440000000fe004440a900000020000000e00081
:100450000300320000002000a00188004440a800f2
:100460000000060091018800800078000000eb0089
:1004700015003700e280400032a0b4009101ba00bc
:10048000e280400032a0b4009102ba00e280400055
:1004900032a0b4000002eb00472bde00f507b200eb
:1004a000602ce10004003a000059eb008301e900f0
:1004b000fdff3e00040037006128e100010032002a
:1004c0000082eb00040007001101ba000200e00006
:1004d000e8ff3a00000006003159ba008301e90044
:1004e0000c0032002159ba008301e90008003200f3
:1004f0000400e00003003a00e280400032a0b400b3
:10050000f5ff370011d9ba008301e900faff3a007c
:100510008100e800e180400032a0b4000000060045
:080520000040da000000fe00bb
:020000040000fa
:0200000401f009
:04000c00f8ff0000f9
:020000040000fa
:0200000401f009
:040010007fff00006e
:020000040000fa
:0200000401f009
:040014007fff00006a
:020000040000fa
:1000080090020000900200009002000090020000a0
:100018009002000090020000900200009002000090
:10002800900200009002000090020000a40200006c
:100038009002000090020000900200009002000070
:100048009002000090020000900200009002000060
:100058009002000090020000900200009002000050
:100068009002000090020000900200009002000040
:100078009002000090020000900200009002000030
:100088009002000090020000900200009002000020
:100098009002000090020000900200009002000010
:1000a8009002000090020000900200009002000000
:1000b80090020000900200009002000090020000f0
:1000c80090020000900200009002000090020000e0
:1000d80090020000900200009002000090020000d0
:1000e80090020000900200009002000090020000c0
:1000f80090020000900200009002000090020000b0
:10010800900200009002000090020000900200009f
:10011800900200009002000090020000900200008f
:10012800900200009002000090020000900200007f
:10013800900200009002000090020000900200006f
:10014800900200009002000090020000900200005f
:10015800900200009002000090020000900200004f
:10016800900200009002000090020000900200003f
:10017800900200009002000090020000900200002f
:10018800900200009002000090020000900200001f
:10019800900200009002000090020000900200000f
:1001a80090020000900200009002000090020000ff
:1001b80090020000900200009002000090020000ef
:1001c80090020000900200009002000090020000df
:1001d80090020000900200009002000090020000cf
:1001e80090020000900200009002000090020000bf
:0801f8009002000090020000db
:020000040000fa
:10020800900200009002000090020000900200009e
:10021800900200009002000090020000900200008e
:10022800900200009002000090020000a40200006a
:10023800900200009002000090020000900200006e
:10024800900200009002000090020000900200005e
:10025800900200009002000090020000900200004e
:10026800900200009002000090020000900200003e
:10027800900200009002000090020000900200002e
:10028800900200009002000090020000900200001e
:10029800900200009002000090020000900200000e
:1002a80090020000900200009002000090020000fe
:1002b80090020000900200009002000090020000ee
:1002c80090020000900200009002000090020000de
:1002d80090020000900200009002000090020000ce
:1002e80090020000900200009002000090020000be
:1002f80090020000900200009002000090020000ae
:10030800900200009002000090020000900200009d
:10031800900200009002000090020000900200008d
:10032800900200009002000090020000900200007d
:10033800900200009002000090020000900200006d
:10034800900200009002000090020000900200005d
:10035800900200009002000090020000900200004d
:10036800900200009002000090020000900200003d
:10037800900200009002000090020000900200002d
:10038800900200009002000090020000900200001d
:10039800900200009002000090020000900200000d
:1003a80090020000900200009002000090020000fd
:1003b80090020000900200009002000090020000ed
:1003c80090020000900200009002000090020000dd
:1003d80090020000900200009002000090020000cd
:1003e80090020000900200009002000090020000bd
:0803f8009002000090020000d9
:020000040000fa
:1005280081e0a90042c0bf007f40600042e0b70000
:100538000000060000ceb3004260b70000000600cd
:100548003600f800809fbe00829fbe00849fbe00d8
:10055800869fbe00c4c2bf004200de00610060008a
:100568000004a2004200dd00412c200091407800e8
:100578000124a10080c0700001007800c4e2b70027
:100588002100200010032000ea0007008460a90071
:100598004f03be004f02be004f01be004f00be0019
:1005a8003600f90000400600833e2000823e20000d
:1005b8000000e000040034008000eb008100e80047
:1005c800810f5000fdff3a000201e900f8ff3a00f0
:1005d8008301e900f5ff3a000300780000000600f7
:1005e800881f7800a300070054000700c042a90034
:1005f800c082a9000001eb00833e2000813e20005c
:100608000000eb000000e800f40f5000fdff3a0086
:100618008100e900faff3a000201e800830f510067
:10062800f6ff3a00c4c2bf004200de00610060006d
:100638000004a2004200dd00412c20009140780017
:100648000124a10080c0700001007800c4e2b70056
:10065800c4c2bf004400de00610060000004a200c4
:100668004400dd00412c2000914078000144a100a5
:1006780080c0700001007800c4e2b700020478006e
:100688008000eb00400120000000e900feff3a0076
:100698008100e800828f5000faff3a000804e90060
:1006a800f7ff3a00c4c2bf004200de0061006000ec
:1006b8000004a2004200dd00412c20009140780097
:1006c8000124a10080c0700001007800c4e2b700d6
:1006d800c4c2bf004400de00610060000004a20044
:1006e8004400dd00412c2000914078000144a10025
:1006f80080c0700001007800c4e2b70000ceb300eb
:100708004260b7004000200093000700100020005e
:100718003a0007007500070081e0a90042c0bf0049
:100728007f40600042e0b700080078004f0478007e
:1007380000000600aaff0700ffff3700103a8000fc
:100748000060a100630420007205200021742000cd
:10075800834878008248780080487800a4c6bf00a3
:1007680001ceb300014060005040b300a4e6b700da
:10077800a6c6bf00014060000024a000a6e6b7009e
:10078800a8c6bf00014060008041b300a8e6b700da
:10079800c6c6bf00014060003040b300c6e6b700df
:1007a800c8c6bf00014060005040b300c8e6b700ab
:1007b800c9c6bf00014060007040b300c9e6b70079
:1007c800d9c6bf00014060000034a000d9e6b700d8
:1007d800d5c6bf00014060009040b300d5e6b70021
:1007e800103a80000060a00021742000834878003f
:1007f8008248780080487800000006002002a9009e
:1008080020c2bf0091cfb3000140600020e2b700d2
:1008180020a2a9002062a90000042000401188003d
:1008280021e2a8002342a80022c2bf00f043b20080
:1008380022e2b700000005003002a90030c2bf0064
:1008480091cfb3000140600030e2b70030a2a900a8
:100858003062a90000042000c011880031e2a8001d
:100868003342a80032c2bf00f043b20032e2b70000
:100878000000050090022000303a880044c7bf00fd
:10088800f043b20044e7b70044c7bf0001ceb3004d
:100898000140600044e7b70012002000a1092000d1
:1008a800800720003374200080497800814978004f
:1008b800824978007105200060042000237420001c
:1008c80080497800814978008249780043c7bf0091
:1008d8000047b200f04f5000fcff3a0042c7bf008b
:1008e8000058a300fdff3200000005004382a90064
:1008f8004362a9004342a9004322a9004302a90078
:1009080042c2a90042a2a80042e2a90042c2bf0016
:10091800c1cfb300014060000004a00042e2b7006c
:10092800c0c1b3004262b700d0a2a90041e2a8004a
:100938000000050010032000401288000000eb00b2
:100948000000e800ea0f5000fdff3a000100fb003c
:1009580040128800000006000001780005e1a900a7
:100968000421a90004c1a90000c3b3000461b700b1
:100978000021ef00a1612000110888006740610094
:100988004400dd00510a200091407800f2c8b3000d
:1009980082c0600080c0700001007800a5e0b70048
:1009a8008460a9009460a80005e1a80010088000f0
:0409b8000000060035
:020000040000fa
:1009bc0000080000983a0000000000000000000051
:00000001FF
