:020000040000fa
:080000000002040000000000f2
:020000040000fa
:100400002f8920008e7324000e0188000000000058
:100410000c00070060c6200001002000110007004a
:10042000000020000000e000020032000000020096
:1004300000000000be0a0200000000000040da00d8
:100440000000fe004440a900000020000000e00081
:100450000300320000002000a00188004440a800f2
:100460000000060091018800800078000000eb0089
:1004700015003700e280400032a0b4009101ba00bc
:10048000e280400032a0b4009102ba00e280400055
:1004900032a0b4000002eb00472bde00f507b200eb
:1004a000602ce10004003a000059eb008301e900f0
:1004b000fdff3e00040037006128e100010032002a
:1004c0000082eb00040007001101ba000200e00006
:1004d000e8ff3a00000006003159ba008301e90044
:1004e0000c0032002159ba008301e90008003200f3
:1004f0000400e00003003a00e280400032a0b400b3
:10050000f5ff370011d9ba008301e900faff3a007c
:100510008100e800e180400032a0b4000000060045
:100520000040da000000fe00889fbe008a9fbe00e7
:10053000010578000100e0000400350008003c00df
:100540000000e000200032000500370060001000cd
:10055000e080180002003b0001f02c001a00370078
:100560000004be006011b8006b0920000982cf00b2
:10057000020039000882cf000441b00069425200f5
:100580000e00320008003b008281710061016400ae
:100590008904d1000884d3008b05e8000442e800f8
:1005a000f9ff3a00050037000804440089844c0034
:1005b0008b05e9000442e900fbff3a00b8000700a0
:1005c0000af0a70001f0a0004f05be004f04be00d6
:1005d00000000600889fbe008a9fbe008c1f780026
:1005e000d5000700dc00330003866c006450e10096
:1005f000240032006420e100270032006150e10055
:10060000220032006120e100210032008b8542008f
:10061000eb07b1000134b800003ab800080442000a
:1006200089844a00013ab8000030b8008880400050
:1006300009014a00040033000000400081804800a6
:10064000020149008b05e900c909dd008301700042
:100650000100320013002000c814de004814dd0041
:100660004709de001200b200c808de0008847000ee
:100670008b00070001f0a1000cf0a70001f0a00022
:10068000be0037006120e100c00032000801be005a
:100690000200be00f7ff37006150e100fcff3a00a6
:1006a000ba0037000001be00bb0007000470a700bd
:1006b00003f0a1006509b100160032000d003500fd
:1006c0006828e10006003500f0ff2f00f1ff270049
:1006d0000300e00013003b000100280000000500bb
:1006e00000004000818048008502e900fcff3a00dc
:1006f00008003700f88f420002003c008000eb0049
:10070000000005008100d1000080d3008502e800d0
:10071000fcff3a000300e00002003b006000100014
:10072000e08018000000060003f0a200889fbe00d1
:100730008a9fbe008c1f78007f0007008600330070
:100740006450e1004f0032006420e10052003200aa
:1007500003826c0007003b000905d0000306d000af
:10076000820f54000c065d000200390002003200c6
:1007700089017800030678008582550004003d0059
:100780000003fd008103fd008502ea008b85420025
:10079000840f720002003b0060001000e08018002f
:1007a0006011b8000005eb007a28e1000a0039006a
:1007b00006007800c75ddd00f707b200878075008e
:1007c0002d003700828171000a0178006105600008
:1007d0008180d1000080d3008502e900f9ff3b0051
:1007e000060440008784480002003b0060041400b7
:1007f000e0841c000988a300070032008a81710090
:1008000082817100610164008904d1000884d300f1
:100810008b05e800170037000978a30013003a00a1
:100820000b00e000130034008b05e90008044400cd
:1008300089844c000a4474000978a3000d003a0032
:100840000b00e000070034008b05e90008044400b9
:1008500089844c0001003a000b0020000978a300b5
:10086000f7ff32000001eb000200370082817100c7
:100870000a0178000a0007000cf0a70001f0a000b0
:100880003e0037006420e10002003a00838f6c00d4
:100890003e0033000801be000200be0037003700f2
:1008a00081002000618055000b003d000b002000fe
:1008b00061fe2f000100e1001d0034008281710003
:1008c000610164008904d1000884d3000000e800bd
:1008d000faff3a007100200061006400030070001c
:1008e000020060000900320061044400e0844c0012
:1008f0000988a500050032008b05e8006808e100c2
:1009000002003a008904d1000884d300f20f2000cd
:100910000258e10005003d00c75ddd00f907b200a7
:100920008980750008007800000006000bf8270099
:100930008b007800000005000004be0016000700d0
:100940000003be000405be000200be001200070046
:10095000844f7500000006000200be006450e100f4
:10096000050036006420e100020036000968a3009b
:1009700001003a000800be000160a0004f067800a8
:100980004f05be004f04be0000000600f0ff2f0020
:10099000f1ff2700f9ff3700c70ade00f107b200b8
:1009a000f50fb20008003200e1cf42000200320031
:1009b0000170a00024000500810f700001003200ca
:1009c0000408050044000500810f700002003a0091
:1009d000140005008502e9000000400081c04800c5
:0c09e000fcff3b000170a000240005009b
:020000040000fa
:0200000401f009
:04000c00f8ff0000f9
:020000040000fa
:0200000401f009
:040010007fff00006e
:020000040000fa
:0200000401f009
:040014007fff00006a
:020000040000fa
:1000080090020000900200009002000090020000a0
:100018009002000090020000900200009002000090
:10002800900200009002000090020000b209000057
:100038001c050000900200009002000090020000e1
:100048009002000090020000900200009002000060
:100058009002000090020000900200009002000050
:100068009002000090020000900200009002000040
:100078009002000090020000900200009002000030
:100088009002000090020000900200009002000020
:100098009002000090020000900200009002000010
:1000a8009002000090020000900200009002000000
:1000b80090020000900200009002000090020000f0
:1000c80090020000900200009002000090020000e0
:1000d80090020000900200009002000090020000d0
:1000e80090020000900200009002000090020000c0
:1000f80090020000900200009002000090020000b0
:10010800900200009002000090020000900200009f
:10011800900200009002000090020000900200008f
:10012800900200009002000090020000900200007f
:10013800900200009002000090020000900200006f
:10014800900200009002000090020000900200005f
:10015800900200009002000090020000900200004f
:10016800900200009002000090020000900200003f
:10017800900200009002000090020000900200002f
:10018800900200009002000090020000900200001f
:10019800900200009002000090020000900200000f
:1001a80090020000900200009002000090020000ff
:1001b80090020000900200009002000090020000ef
:1001c80090020000900200009002000090020000df
:1001d80090020000900200009002000090020000cf
:1001e80090020000900200009002000090020000bf
:0801f8009002000090020000db
:020000040000fa
:10020800900200009002000090020000900200009e
:10021800900200009002000090020000900200008e
:10022800900200009002000090020000b209000055
:100238001c050000900200009002000090020000df
:10024800900200009002000090020000900200005e
:10025800900200009002000090020000900200004e
:10026800900200009002000090020000900200003e
:10027800900200009002000090020000900200002e
:10028800900200009002000090020000900200001e
:10029800900200009002000090020000900200000e
:1002a80090020000900200009002000090020000fe
:1002b80090020000900200009002000090020000ee
:1002c80090020000900200009002000090020000de
:1002d80090020000900200009002000090020000ce
:1002e80090020000900200009002000090020000be
:1002f80090020000900200009002000090020000ae
:10030800900200009002000090020000900200009d
:10031800900200009002000090020000900200008d
:10032800900200009002000090020000900200007d
:10033800900200009002000090020000900200006d
:10034800900200009002000090020000900200005d
:10035800900200009002000090020000900200004d
:10036800900200009002000090020000900200003d
:10037800900200009002000090020000900200002d
:10038800900200009002000090020000900200001d
:10039800900200009002000090020000900200000d
:1003a80090020000900200009002000090020000fd
:1003b80090020000900200009002000090020000ed
:1003c80090020000900200009002000090020000dd
:1003d80090020000900200009002000090020000cd
:1003e80090020000900200009002000090020000bd
:0803f8009002000090020000d9
:020000040000fa
:1009ec000000fa0020002000001c8800600120009c
:1009fc00501c8800b0002000101c880060222000d1
:100a0c00401c8800207d2000201c8800407a20009b
:100a1c00301c88008480a9009480a80081e3a80081
:100a2c000000eb000080fa00000006003600f80021
:100a3c00809fbe00829fbe00849fbe00869fbe002a
:100a4c00889fbe003400f80000002000a001880040
:100a5c001000fa00004080000000e00030003a0076
:100a6c00903e820010408800a03e8200204088000a
:100a7c00b03e820030408800c03e8200404088007a
:100a8c00d03e820050408800e03e820060408800ea
:100a9c00f03e820070408800003f82008040880059
:100aac00103f820090408800203f8200a0408800c8
:100abc00303f8200b0408800403f8200c040880038
:100acc00503f8200d0408800603f8200e0408800a8
:100adc00703f8200f0408800803f82000041880017
:100aec00903f820010418800a03f82002041880086
:100afc00b03f820030418800c03f820040418800f6
:100b0c00d03f820050418800e03f82006041880065
:100b1c00f03f820070418800c482a8002f0037008b
:100b2c00203d820010408800303d8200204088002b
:100b3c00403d820030408800503d8200404088009b
:100b4c00603d820050408800703d8200604088000b
:100b5c00803d820070408800903d8200804088007b
:100b6c00a03d820090408800b03d8200a0408800eb
:100b7c00c03d8200b0408800d03d8200c04088005b
:100b8c00e03d8200d0408800f03d8200e0408800cb
:100b9c00003e8200f0408800103e82000041880038
:100bac00203e820010418800303e820020418800a7
:100bbc00403e820030418800503e82004041880017
:100bcc00603e820050418800703e82006041880087
:100bdc00803e820070418800c482a90020408000c1
:100bec00c800dd003040800000807000cf80de0047
:100bfc0090418800a141880096418000a741800067
:100c0c008600780000e120000009b8006030b900cf
:100c1c00030278000002420000e1200000b8b90095
:100c2c00000242008401780092418800a3418800b0
:100c3c0090418000a14180004088de00cf80de0022
:100c4c0090418800a141880040408000c800dd0030
:100c5c005040800000807000cf80de00b0418800e2
:100c6c00c1418800b6418000c741800086007800f1
:100c7c0000e120000009b8006030b90003027800e0
:100c8c000002420000e1200000b8b900000242005e
:100c9c0084017800b2418800c3418800b0418000d3
:100cac00c14180004088de00cf80de00b04188006a
:100cbc00c141880060408000c800dd0070408000a9
:100ccc0000807000cf80de00d0418800e1418800b8
:100cdc00d6418000e74180008600780000e12000ca
:100cec000009b8006030b90003027800000242002d
:100cfc0000e1200000b8b900000242008401780035
:100d0c00d2418800e3418800d0418000e14180005d
:100d1c004088de00cf80de00d0418800e1418800b1
:100d2c0080408000c800dd00904080000080700092
:100d3c00cf80de00f041880001428800f64180003f
:100d4c00074280008600780080c024000009b800ab
:100d5c006130b900030278000002420080c0240018
:100d6c0000b8b9000002420084017800f24188000a
:100d7c0003428800f0418000014280004109dd00ff
:100d8c004f00de0000007100cf88de00f0418800cb
:100d9c0001428800a0408000c800dd00b040800007
:100dac0000807000cf80de00104288002142880055
:100dbc0016428000274280008600780080c0240004
:100dcc000009b8006130b90003027800000242004b
:100ddc0080c0240000b8b9000002420084017800f1
:100dec001242880023428800104280002142800079
:100dfc004109dd004f00de0000007100cf88de00ed
:100e0c001042880021428800c0408000c800dd00ec
:100e1c00d040800000807000cf80de00304288001f
:100e2c0041428800364280004742800086007800ac
:100e3c0080c024000009b8006130b90003027800ba
:100e4c000002420080c0240000b8b9000002420039
:100e5c00840178003242880043428800304280008e
:100e6c00414280004109dd004f00de0000007100ae
:100e7c00cf88de003042880041428800e04080008c
:100e8c00c800dd00f040800000807000cf80de00e4
:100e9c0050428800614288005642800067428000c0
:100eac0086007800007122000009b8006030b9009b
:100ebc0003027800000242000071220000b8b90061
:100ecc00000242008401780052428800634288008c
:100edc0050428000614280004109dd004f00de007d
:100eec0000007100cf88de0050428800614288000b
:100efc0000418000c800dd001041800000807000bf
:100f0c00cf80de00704288008142880076428000eb
:100f1c008742800086007800007122000009b8002a
:100f2c006030b90003027800000242000071220018
:100f3c0000b8b900000242008401780072428800b7
:100f4c008342880070428000814280004109dd00ac
:100f5c004f00de0000007100cf88de007042880078
:100f6c008142880020418000c800dd0030418000b3
:100f7c0000807000cf80de0090428800a142880083
:100f8c0096428000a7428000860078000071220003
:100f9c000009b8006030b90003027800000242007a
:100fac000071220000b8b9000002420084017800f0
:100fbc0092428800a342880090428000a1428000a7
:100fcc004109dd004f00de0000007100cf88de001b
:100fdc0090428800a142880090418000a14180008d
:100fec000000ea00700798007e009000cf80de00c1
:100ffc004afd0700e2428000f342800072fd0700c8
:10100c00a5fd0700600798006143800040062000a2
:10101c000088b900cf80de0040fd07000004be0050
:10102c007e009000cf80de003cfd07000243800074
:10103c001343800064fd07000001be000800be00e1
:10104c00b7fd070094fd0700604388005143800002
:10105c007e00900001005000cf80de002ffd0700c5
:10106c00224380003343800057fd0700020020001c
:10107c00832c240054fd070087fd070050079800bf
:10108c00ee0090005e009000808040006043800085
:10109c0042062000811f7800110009000200d800d0
:1010ac0001017800cf0078000080400040079800d4
:1010bc00b14280004e00900000804000b042880099
:1010cc00b1428000f0632000808f500003003c0090
:1010dc0000642000b042880009003700b142800053
:1010ec0000fa2000808f50000300340000fa20002a
:1010fc00b042880002003700b0428000b042880045
:10110c007e0090005043880000082000a011880049
:10111c0010002000a011880040002000a0118800c1
:10112c0010002000a011880033c2bf006140600095
:10113c000004e000fcff3200b04280004780de007b
:10114c00a0118800b042800080007800f0072000d9
:10115c0000806000a011880033c2bf0061406000b5
:10116c000004e000fcff3200b0418000c14180006f
:10117c00300798003e009000cf80de00e7fc0700af
:10118c0072438000834380000ffd070042fd07007f
:10119c0020079800f1438000400620000088b90029
:1011ac00cf80de00ddfc07000004be003e00900096
:1011bc00cf80de00d9fc070092438000a34380005f
:1011cc0001fd07000001be000800be0054fd070031
:1011dc0031fd0700f0438800e14380003e009000a1
:1011ec0001005000cf80de00ccfc0700b243800031
:1011fc00c3438000f4fc070002002000832c240071
:10120c00f1fc070024fd070010079800ae009000c9
:10121c001e00900080804000f043800042062000b9
:10122c00811f7800110009000200d800010178002c
:10123c00cf007800008f4000c04280001e004000ac
:10124c00c0428800c1428000f0632000808f5000b3
:10125c0003003c0000642000c042880009003700f5
:10126c00c142800000fa2000808f5000030034003f
:10127c0000fa2000c042880002003700c042800003
:10128c00c04288003e019000e24388000008200024
:10129c00a011880010002000a011880033c2bf00ec
:1012ac00614060000004e000fcff320040002000c0
:1012bc00a011880020002000a0118800c0428000ee
:1012cc004780de00a0118800c042800080007800ba
:1012dc00f007200000806000a011880033c2bf001e
:1012ec00614060000004e000fcff32000040800020
:1012fc000000a200004088008480a9000080fa0051
:10130c003400f9004f04be004f03be004f02be0074
:10131c004f01be004f00be003600f9000040060031
:10132c000000fa0081e0a90042c0bf007f406000cd
:10133c0042e0b7000080fa00000006000000fa004e
:10134c0042c0bf0001ceb3000140700042e0b700c4
:10135c000080fa0000000600809fbe00821f78000b
:10136c000000fa00c4c2bf000080fb004200de0097
:10137c006140600000c0ea006140600061406000b4
:10138c004201dd00412c200091407800b0cfb30029
:10139c0000c0600002407000c4e2b70010032000df
:1013ac002011880023c2bf00614060000004e000ef
:1013bc00fcff32008460a9000080fa004f01780025
:1013cc004f00be00004006000800fa0030079800ed
:1013dc000000eb0020079800140037000000eb0021
:1013ec00100798000a0037000000eb00000f78008f
:1013fc00010037001e0fe8003e0090009e0f100009
:10140c00fcff35001e0090000000e800100798005b
:10141c009e009000703e2000808f5000f2ff340040
:10142c002e0090000000e80020079800ae0090000d
:10143c00703e2000808f5000e8ff34000000eb006d
:10144c000080fa00000006000600fa0043010700c5
:10145c00c6000700c042a900c082a90040012000bc
:10146c00d9ff0700c4c2bf000080fb004200de00b1
:10147c006140600000c0ea006140600061406000b3
:10148c004201dd00412c200091407800b0cfb30028
:10149c0000c0600002407000c4e2b700c4c2bf00cc
:1014ac000080fb004400de006140600000c0ea00e8
:1014bc0061406000614060004401dd00412c20006f
:1014cc0091407800f0ceb30000c060000240700084
:1014dc00c4e2b70040012000bbff0700c4c2bf003c
:1014ec000080fb004200de006140600000c0ea00aa
:1014fc0061406000614060004201dd00412c200031
:10150c0091407800b0cfb30000c060000240700082
:10151c00c4e2b700c4c2bf000080fb004400de0080
:10152c006140600000c0ea00614060006140600002
:10153c004401dd00412c200091407800f0ceb30036
:10154c0000c0600002407000c4e2b7007bff0700df
:10155c004000200025010700200798000900070023
:10156c006fff07000000eb000080fa00000006008f
:10157c000200fa00b4ff070030002000000f7800d2
:10158c00fdff37000000fa00c0c1bf006f406000d3
:10159c00c0e1b700c0c5bf006f406000c0e5b70038
:1015ac00c0c1bf00c040b300c0e1b700c0c5bf00a0
:1015bc00c040b300c0e5b700011c2000914078008a
:1015cc00c0cfb30000c06000c0e1b700011c200018
:1015dc0091407800c0cfb30000c06000c0e1b700fc
:1015ec00110e80000000280000806000100e8800a2
:1015fc00110e80000000280000806000100e880092
:10160c00210e80000000280000806000310d2300b6
:10161c0001007000200e8800212e800000002800a0
:10162c0000806000310d230001007000202e880026
:10163c00f0ff2100b00e8800f0ff2200c00e8800e1
:10164c00f0ff2300d00e8800f0ff2400b02e88009d
:10165c00d5a1a800d561a800d521a800d581a800e6
:10166c00d541a800d501a800d525a800d505a8000e
:10167c00c901a800c921a800c941a800c905a80032
:10168c00c8c1a800c841a800c8a1a800c821a800ca
:10169c00c881a800c801a800c885a800c805a80072
:1016ac00c1e1a800c1e5a8000080fa000000060016
:1016bc000000fa002c83a9002ca3a9002143a80048
:1016cc0023c3bf007f40600023e3b700013220003a
:1016dc009140780000ceb30000c0700020e3b7004a
:1016ec0028e3a90025e3a90030c0b30024e3b70028
:1016fc00513220009140780000ceb30000c0600051
:10170c00a040b30025e3b7002043a90021e3a800c3
:10171c000000eb000080fa00000006000200fa0056
:10172c00004f78002003a9009e4078007fc0600025
:10173c007f416000813220009140780000ceb300e0
:10174c0000c060000240700028e3b7002023a8000e
:10175c0020c3bf00614060000004e000fcff3200c9
:10176c00001880000080fa00000006000000fa005b
:10177c00113a8000f0fb2f00008160006104200012
:10178c00700520002374200081497800804978007e
:10179c0082497800416a20009140780000ceb30065
:1017ac0000c060005040b300a4e6b700616a20009e
:1017bc009140780000ceb30000c060000024a0006f
:1017cc00a6e6b700816c20009140780000ceb300f3
:1017dc0000c060005040b300c8e6b700616c200048
:1017ec009140780000ceb30000c060003040b300e0
:1017fc00c6e6b700113a800000042000008170009a
:10180c0061042000700520002374200081497800b9
:10181c0080497800824978000080fa0000000600b8
:10182c000200fa00004f78002002a90001222000db
:10183c009140780090cfb30000c0600020e2b70068
:10184c0020a2a9002062a9000004200040118800f9
:10185c0021e2a8002342a80022c2bf00f043b2003c
:10186c0022e2b7000000eb000080fa000000060046
:10187c000200fa00004f78003002a900012320007a
:10188c009140780090cfb30000c0600030e2b70008
:10189c0030a2a9003062a90000042000c011880009
:1018ac0031e2a8003342a80032c2bf00f043b200bc
:1018bc0032e2b7000000eb000080fa0000000600e6
:020000040000fa
:1018cc00560800003c00000002000000f00af00086
:1018dc000af00a00cdcc4c003e00000000003100a4
:1018ec00082c3c000000000000000000cdcc4c0097
:1018fc003e00000000003100082c3c0000000000fd
:10190c0000000000cdcc4c003e0000000000310077
:10191c00082c3c0000000000000000000008000043
:10192c005600000000000000d24700002e0000000e
:10193c0000000000a44700002e0000000000000082
:10194c00764700002e000000000000004847000011
:0c195c002e000000000000000000000051
:020000040000fa
:101968000000fa0090022000303a880044c7bf0007
:10197800f043b20044e7b70041742000914078007a
:1019880000ceb30000c0600044e7b700120020009a
:1019980081072000a00920003374200081497800c5
:1019a80080497800824978001200200061042000f4
:1019b8007005200023742000814978008049780050
:1019c8008249780043c7bf000047b200f04f50007b
:1019d800fcff3a0042c7bf000042b2000004e0002a
:1019e800fcff32000000eb000080fa000000060057
:1019f8000200fa00000f780005e1a9000421a900ff
:101a080004c1a900411020009140780000c3b30030
:101a180000c0700004e1b7000000eb000008880077
:101a280080452100100888001e007800674060008b
:101a3800674060004401dd00510a200091407800b1
:101a4800f0c8b30000c0600002407000a5e0b70015
:101a58008460a9009460a80005e1a800100880002f
:081a68000080fa0000000600f6
:00000001FF
