:020000040000fa
:080000000002040000000000f2
:020000040000fa
:100400004f6a24000e7324000e01880000000000d3
:100410000c00070020de2000010020001100070072
:10042000000020000000e000020032000000020096
:1004300000000000b0020200000000000040da00ee
:100440000000fe004440a900000020000000e00081
:100450000300320000002000a00188004440a800f2
:100460000000060091018800800078000000eb0089
:1004700015003700e280400032a0b4009101ba00bc
:10048000e280400032a0b4009102ba00e280400055
:1004900032a0b4000002eb00472bde00f507b200eb
:1004a000602ce10004003a000059eb008301e900f0
:1004b000fdff3e00040037006128e100010032002a
:1004c0000082eb00040007001101ba000200e00006
:1004d000e8ff3a00000006003159ba008301e90044
:1004e0000c0032002159ba008301e90008003200f3
:1004f0000400e00003003a00e280400032a0b400b3
:10050000f5ff370011d9ba008301e900faff3a007c
:100510008100e800e180400032a0b4000000060045
:080520000040da000000fe00bb
:020000040000fa
:0200000401f009
:04000c00f8ff0000f9
:020000040000fa
:0200000401f009
:040010007fff00006e
:020000040000fa
:0200000401f009
:040014007fff00006a
:020000040000fa
:1000080090020000900200009002000090020000a0
:100018009002000090020000900200009002000090
:100028009002000090020000900200002a0a0000de
:100038008a0a00009002000090020000900200006e
:100048009002000090020000900200009002000060
:100058009002000090020000bc0a0000900200001c
:100068009002000090020000900200009002000040
:100078009002000090020000900200009002000030
:10008800ee0a0000900200009002000090020000ba
:100098009002000090020000900200009002000010
:1000a8009002000090020000900200009002000000
:1000b80090020000900200009002000090020000f0
:1000c80090020000900200009002000090020000e0
:1000d80090020000900200009002000090020000d0
:1000e80090020000900200009002000090020000c0
:1000f80090020000900200009002000090020000b0
:10010800900200009002000090020000900200009f
:10011800900200009002000090020000900200008f
:10012800900200009002000090020000900200007f
:10013800900200009002000090020000900200006f
:10014800900200009002000090020000900200005f
:10015800900200009002000090020000900200004f
:10016800900200009002000090020000900200003f
:10017800900200009002000090020000900200002f
:10018800900200009002000090020000900200001f
:10019800900200009002000090020000900200000f
:1001a80090020000900200009002000090020000ff
:1001b80090020000900200009002000090020000ef
:1001c80090020000900200009002000090020000df
:1001d80090020000900200009002000090020000cf
:1001e80090020000900200009002000090020000bf
:0801f8009002000090020000db
:020000040000fa
:10020800900200009002000090020000900200009e
:10021800900200009002000090020000900200008e
:100228009002000090020000900200002a0a0000dc
:100238008a0a00009002000090020000900200006c
:10024800900200009002000090020000900200005e
:100258009002000090020000bc0a0000900200001a
:10026800900200009002000090020000900200003e
:10027800900200009002000090020000900200002e
:10028800ee0a0000900200009002000090020000b8
:10029800900200009002000090020000900200000e
:1002a80090020000900200009002000090020000fe
:1002b80090020000900200009002000090020000ee
:1002c80090020000900200009002000090020000de
:1002d80090020000900200009002000090020000ce
:1002e80090020000900200009002000090020000be
:1002f80090020000900200009002000090020000ae
:10030800900200009002000090020000900200009d
:10031800900200009002000090020000900200008d
:10032800900200009002000090020000900200007d
:10033800900200009002000090020000900200006d
:10034800900200009002000090020000900200005d
:10035800900200009002000090020000900200004d
:10036800900200009002000090020000900200003d
:10037800900200009002000090020000900200002d
:10038800900200009002000090020000900200001d
:10039800900200009002000090020000900200000d
:1003a80090020000900200009002000090020000fd
:1003b80090020000900200009002000090020000ed
:1003c80090020000900200009002000090020000dd
:1003d80090020000900200009002000090020000cd
:1003e80090020000900200009002000090020000bd
:0803f8009002000090020000d9
:020000040000fa
:100528000000fa0081e0a80042c0bf007f406000e0
:1005380042e0b7000080fa00000006000000fa0060
:1005480042c0bf0001ceb3000140700042e0b700d6
:100558000080fa00000006000a00fa003a050700c9
:100568005d05070040002000c204070009050700d8
:100578004c02070080a22000000f7800c442a800a7
:10058800c482a8006000b8003007980041079800ae
:10059800170037006000b80010079800210798007e
:1005a800060037001e009000ae0090006100400079
:1005b800e080480010079800210798001e0190006d
:1005c800ae0190003006200001002000800f51008d
:1005d800818f5900f3ff36003e009000ce00900056
:1005e80061004000e080480030079800410798000b
:1005f8003e019000ce019000f0a52e0001002000e1
:10060800800f5100818f5900e2ff3600c442a900d3
:10061800c482a9006000b80030079800410798001c
:10062800170037006000b8001007980021079800ed
:10063800060037001e009000ae00900061004000e8
:10064800e080480010079800210798001e019000dc
:10065800ae0190003006200001002000800f5100fc
:10066800818f5900f3ff36003e009000ce009000c5
:1006780061004000e080480030079800410798007a
:100688003e019000ce019000f0a52e000100200050
:10069800800f5100818f5900e2ff360000003700bb
:1006a8006000b8003007980041079800060037003e
:1006b8003e009000ce00900061004000e0804800bd
:1006c80030079800410798003e019000ce01900045
:1006d80090d7200001002000800f5100818f590021
:1006e800f3ff3600fc0207000004e000ecff3200d4
:1006f8006000b800300798004107980006003700ee
:100708003e009000ce00900061004000e08048006c
:1007180030079800410798003e019000ce019000f4
:1007280090d7200001002000800f5100818f5900d0
:10073800f3ff3600e80207000004e000d8ff3200ab
:100748006000b8003007980041079800060037009d
:100758003e009000ce00900061004000e08048001c
:1007680030079800410798003e019000ce019000a4
:1007780090d7200001002000800f5100818f590080
:10078800f3ff3600d40207000004e00015003a0029
:10079800c3ff37006000b800300798004107980091
:1007a800060037003e009000ce0090006100400037
:1007b800e080480030079800410798003e0190000b
:1007c800ce01900090d7200001002000800f51003a
:1007d800818f5900f3ff36000040eb00fe0107004f
:1007e8001e0fe9001e00e000eaff3a00480037004b
:1007f800c442a900c482a9006000b800300798006c
:1008080041079800060037003e009000ce00900097
:1008180061004000e08048003007980041079800d8
:100828003e019000ce019000f0a52e0001002000ae
:10083800800f5100818f5900f3ff36006000b80027
:100848003007980041079800060037003e009000e6
:10085800ce00900061004000e0804800300798001a
:10086800410798003e019000ce019000f0a52e00af
:1008780001002000800f5100818f5900f3ff3600de
:10088800c442a800c482a8006000b80030079800dd
:1008980041079800060037003e009000ce00900007
:1008a80061004000e0804800300798004107980048
:1008b8003e019000ce019000f0a52e00010020001e
:1008c800800f5100818f5900f3ff36006000b80097
:1008d8003007980041079800060037003e00900056
:1008e800ce00900061004000e0804800300798008a
:1008f800410798003e019000ce019000f0a52e001f
:1009080001002000800f5100818f5900f3ff36004d
:10091800cac2bf000044b2000004e000b4ff3a00bd
:100928006000b8003007980041079800840037003d
:100938000000eb00201188000000eb002011880067
:1009480023c2bf00614060000004e000fcff3200e9
:10095800be00900060002000000ab8003e00900031
:100968006000b90005017800000141004e009000c8
:100978006600b9000001410082027800d0802000a2
:1009880004004000104078000000fb00201188009f
:10099800be00900060002000000ab8003e009000f1
:1009a8006000b90005017800000141004e00900088
:1009b8006600b9000001410082027800610042002f
:1009c800e0804a00d28020000000410010407800fa
:1009d8000000fb002011880023c2bf0061406000b6
:1009e8000004e000fcff3200be0090006000200020
:1009f800000ab8003e0090006000b90005017800c8
:100a0800000141004e0090006600b900000141005d
:100a18008202780062004200e0804a00d280200012
:100a280000004100104078000000fb002011880001
:100a3800be00900060002000000ab8003e00900050
:100a48006000b90005017800000141004e009000e7
:100a58006600b9000001410082027800630042008c
:100a6800e0804a00d2802000000041001040780059
:100a78000000fb002011880023c2bf006140600015
:100a88000004e000fcff3200be009000600020007f
:100a9800000ab8003e0090006000b9000501780027
:100aa800000141004e0090006600b90000014100bd
:100ab8008202780064004200e0804a00d280200070
:100ac80000004100104078000000fb002011880061
:100ad800be00900060002000000ab8003e009000b0
:100ae8006000b90005017800000141004e00900047
:100af8006600b900000141008202780065004200ea
:100b0800e0804a00d28020000000410010407800b8
:100b18000000fb002011880023c2bf006140600074
:100b28000004e000fcff32003e009000ce00900080
:100b380061004000e08048003007980041079800b5
:100b48003e019000ce01900070a22000010020001c
:100b5800800f5100818f590075ff3600c4c2bf0055
:100b68000080fb004200de006140600000c0ea0037
:100b780061406000614060004201dd00412c2000be
:100b880091407800b0cfb30000c060000240700010
:100b9800c4e2b700c4c2bf000080fb004200de0010
:100ba8006140600000c0ea00614060006140600090
:100bb8004401dd00412c200091407800f0ceb300c4
:100bc80000c0600002407000c4e2b7006000b800d6
:100bd8003007980041079800060037003e00900053
:100be800ce00900061004000e08048003007980087
:100bf800410798003e019000ce019000f0a52e001c
:100c080001002000800f5100818f5900f3ff36004a
:100c18006000b800300798004107980006003700c8
:100c28003e009000ce00900061004000e080480047
:100c380030079800410798003e019000ce019000cf
:100c4800f0a52e0001002000800f5100818f59006f
:100c5800f3ff36006000b80030079800410798009d
:100c6800060037003e009000ce0090006100400072
:100c7800e080480030079800410798003e01900046
:100c8800ce019000f0a52e0001002000800f510039
:100c9800818f5900f3ff36006000b80030079800d4
:100ca80041079800060037003e009000ce009000f3
:100cb80061004000e0804800300798004107980034
:100cc8003e019000ce019000f0a52e00010020000a
:100cd800800f5100818f5900f3ff3600c4c2bf0056
:100ce8000080fb004200de006140600000c0ea00b6
:100cf80061406000614060004201dd00412c20003d
:100d080091407800b0cfb30000c06000024070008e
:100d1800c4e2b700c4c2bf000080fb004200de008e
:100d28006140600000c0ea0061406000614060000e
:100d38004401dd00412c200091407800f0ceb30042
:100d480000c0600002407000c4e2b7006000b80054
:100d58003007980041079800060037003e009000d1
:100d6800ce00900061004000e08048003007980005
:100d7800410798003e019000ce019000f0a52e009a
:100d880001002000800f5100818f5900f3ff3600c9
:100d98006000b80030079800410798000600370047
:100da8003e009000ce00900061004000e0804800c6
:100db80030079800410798003e019000ce0190004e
:100dc800f0a52e0001002000800f5100818f5900ee
:100dd800f3ff36006000b80030079800410798001c
:100de800060037003e009000ce00900061004000f1
:100df800e080480030079800410798003e019000c5
:100e0800ce019000f0a52e0001002000800f5100b7
:100e1800818f5900f3ff36006000b8003007980052
:100e280041079800060037003e009000ce00900071
:100e380061004000e08048003007980041079800b2
:100e48003e019000ce019000f0a52e000100200088
:100e5800800f5100818f5900f3ff36003fff3700a4
:100e68000200fa00004f78001e00fb0040128800c4
:100e780040c2bf00624060000004e000fcff3a008e
:100e880040c2bf00614060000004e000fcff320087
:100e980040128000004f78001e00fb000080fa001e
:100ea800000006000400fa006000b800008fbe00d1
:100eb8006000b800008fbe0004003700100020005a
:100ec800010020001e0f40005e974800f0a52e008c
:100ed80001002000be0f1000ae8f1800f7ff36008b
:100ee800d4c2a90010c3b300ddff0700804078001a
:100ef8002080200001487800b0c0b300d8ff070068
:100f0800804078003080200001487800d4c2a800d2
:100f18006000b800008fbe000400370010002000f9
:100f2800010020001e0f40005e974800f0a52e002b
:100f380001002000be0f1000ae8f1800f7ff36002a
:100f4800d4c2a900c0c2b300c5ff07008040780022
:100f58004080200001487800c0c0b300c0ff0700ef
:100f6800804078005080200001487800d4c2a80052
:100f78006000b800008fbe00040037001000200099
:100f8800010020001e0f40005e974800f0a52e00cb
:100f980001002000be0f1000ae8f1800f7ff3600ca
:100fa800d4c2a900d0c2b300adff070080407800ca
:100fb800408020000148780080c0b300a8ff0700e7
:100fc800804078005080200001487800d4c2a800f2
:100fd8000080fa00000006000800fa006047980048
:100fe8006000b8001007980021079800d4c2a90033
:100ff80020cfb300004f78001e40780098ff07000c
:101008008040780060802000014878000040eb00b4
:1010180093ff070080407800708020000148780026
:101028000040eb008eff07008040780080802000a1
:10103800014878000040eb0089ff070080407800f5
:1010480090802000014878000040eb0084ff0700f2
:1010580080407800a0802000014878000040eb0024
:101068007fff070080407800b080200001487800aa
:101078000040eb007aff070080407800c080200025
:1010880001487800d4c2a800c4c2bf000080fb0099
:101098004200de006140600000c0ea00614060007c
:1010a800614060004201dd00412c20009140780041
:1010b800b0cfb30000c0600002407000c4e2b700c7
:1010c800c4c2bf000080fb004200de006140600037
:1010d80000c0ea0061406000614060004401dd003a
:1010e800412c200091407800f0ceb30000c0600091
:1010f80002407000c4e2b700004080006600b900fa
:10110800000178007080200090407800d080200096
:1011180001717800004080006600b9000001e80015
:101128008080200090407800d080200001717800f5
:10113800004080006600b9000081e800908020002f
:1011480090407800d0802000017178000040800035
:101158006600b90063014000a0802000904078003c
:10116800d080200001717800004080006600b9003e
:1011780064014000b080200090407800d0802000ba
:1011880001717800004080006600b90065014000e8
:10119800c080200090407800d08020000171780045
:1011a8000140800070a22000808f500003003c00a6
:1011b800004080000000e8000040880070802000a7
:1011c800104078000000fb000080fa0000000600d4
:1011d8000800fa006047980000c8b300004f780084
:1011e800d4c2a9006000b800100798002107980031
:1011f800060037001e009000ae009000610040001d
:10120800e080480010079800210798001e01900010
:10121800ae0190003010200001002000800f510026
:10122800818f5900f3ff34001e4078000cff07003f
:101238008040780060802000014878000040eb0082
:1012480007ff070080407800708020000148780080
:10125800d4c2a800c4c2bf000080fb004200de0068
:101268006140600000c0ea006140600061406000c9
:101278004201dd00412c200091407800b0cfb3003e
:1012880000c0600002407000c4e2b700c4c2bf00e2
:101298000080fb004200de006140600000c0ea0000
:1012a80061406000614060004401dd00412c200085
:1012b80091407800f0ceb30000c06000024070009a
:1012c800c4e2b70070802000104078000000fb00e6
:1012d8000080fa00000006000400fa00d4c2a90049
:1012e80020cfb300004f78001e407800dcfe0700d6
:1012f8008040780060802000014878000040eb00c2
:10130800d7fe0700804078007080200001487800f0
:101318000040eb00d2fe070080407800808020006b
:10132800014878000040eb00cdfe070080407800bf
:1013380090802000014878000040eb00c8fe0700bc
:1013480080407800a0802000014878000040eb0031
:10135800c3fe070080407800b08020000148780074
:101368000040eb00befe070080407800c0802000ef
:1013780001487800d4c2a80080802000104078007e
:101388000000fb00c800dd007080200010407800dd
:101398000080fb000080700070348a00a08020006c
:1013a800104078000000fb00c800dd00908020009d
:1013b800104078000080fb000080700080348a00b4
:1013c800c0802000104078000000fb00c800dd004d
:1013d800b0802000104078000080fb000080700082
:1013e80090348a0070348200f80f500012003c00dc
:1013f80070348200f90f40000f00340080348200fe
:10140800f80f50000c003c0080348200f90f4000b7
:101418000900340090348200f80f500006003c00a8
:1014280090348200f90f40000300340010002000bf
:1014380010079800020037000000eb001007980022
:101448001e0090000080fa0000000600809fbe0089
:10145800821f78000000fa00c4c2bf000080fb00b1
:101468004200de006140600000c0ea0061406000a8
:10147800614060004201dd00412c2000914078006d
:10148800b0cfb30000c0600002407000c4e2b700f3
:10149800c4c2bf000080fb004200de006140600063
:1014a80000c0ea0061406000614060004401dd0066
:1014b800412c200091407800f0ceb30000c06000bd
:1014c80002407000c4e2b70030052000a011880077
:1014d80033c2bf00614060000004e000fcff32003e
:1014e800d00420002011880023c2bf0061406000a2
:1014f8000004e000fcff32008460a9000080fa00cc
:101508004f0178004f00be0000400600809fbe00db
:10151800821f78000000fa00f03482000000a20068
:10152800f0348a00c4c2bf000080fb004200de0025
:101538006140600000c0ea006140600061406000f6
:101548004201dd00412c200091407800b0cfb3006b
:1015580000c0600002407000c4e2b7008480a900a7
:101568000080fa004f0178004f00be0000400600de
:10157800809fbe00821f78000000fa0000358200bc
:101588000000a20000358a00c4c2bf000080fb0032
:101598004400de006140600000c0ea006140600075
:1015a800614060004401dd00412c2000914078003a
:1015b800f0ceb30000c0600002407000c4e2b70083
:1015c80085c0a9000080fa004f0178004f00be00d6
:1015d80000400600809fbe00821f78000000fa00cd
:1015e800103582000000e00031003a00003a820025
:1015f80020118800103a820020118800203a8200c9
:1016080020118800303a82002011880023c2bf00d0
:10161800614060000004e000fcff3200403a8200b4
:1016280020118800503a820020118800603a820018
:1016380020118800703a82002011880023c2bf0060
:10164800614060000004e000fcff3200803a820044
:1016580020118800903a820020118800a03a820068
:1016680020118800b03a82002011880023c2bf00f0
:10167800614060000004e000fcff3200c03a8200d4
:1016880020118800d03a820020118800e03a8200b8
:1016980020118800f03a82002011880023c2bf0080
:1016a800614060000004e000fcff320030003700b9
:1016b800003b820020118800103b82002011880026
:1016c800203b820020118800303b820020118800d6
:1016d80023c2bf00614060000004e000fcff32004c
:1016e800403b820020118800503b82002011880076
:1016f800603b820020118800703b82002011880026
:1017080023c2bf00614060000004e000fcff32001b
:10171800803b820020118800903b820020118800c5
:10172800a03b820020118800b03b82002011880075
:1017380023c2bf00614060000004e000fcff3200eb
:10174800c03b820020118800d03b82002011880015
:10175800e03b820020118800f03b820020118800c5
:1017680023c2bf00614060000004e000fcff3200bb
:10177800103582000000a20010358a00c4c2bf00e4
:101788000080fb004400de006140600000c0ea0009
:1017980061406000614060004401dd00412c200090
:1017a80091407800f0ceb30000c0600002407000a5
:1017b800c4e2b700c4c2bf000080fb004400de00e2
:1017c8006140600000c0ea00614060006140600064
:1017d8004201dd00412c200091407800b0cfb300d9
:1017e80000c0600002407000c4e2b7008700a90092
:1017f8000080fa004f0178004f00be00004006004c
:101808000200fa00000f780005e1a9000421a900f0
:1018180004c1a900411020009140780000c3b30022
:1018280000c0700004e1b7000000eb000008880069
:1018380020a12700100888001e007800674060007b
:10184800674060004401dd00510a200091407800a3
:10185800f0c8b30000c0600002407000a5e0b70007
:101868008460a9009460a80005e1a8000080fa003f
:10187800000006000200fa00000f78002002a9000c
:10188800012220009140780090cfb30000c0600092
:1018980020e2b70020a2a9002062a90000042000cd
:1018a8004011880021e2a8002342a8000080fa0025
:1018b800000006000200fa00000f78003002a900bc
:1018c800012320009140780090cfb30000c0600051
:1018d80030e2b70030a2a9003062a900000420005d
:1018e800c011880031e2a8003342a8000080fa0045
:1018f800000006000000fa0020002000001c8800fc
:10190800f0002000501c8800b0002000101c880047
:1019180060222000401c8800007e2000201c8800d7
:10192800007c2000301c88008480a9009480a800d6
:1019380081e3a8000080fa00000006000000fa0019
:1019480020002000601c8800f0002000b01c8800e7
:10195800e0012000701c880060232000a01c880083
:10196800007a2000801c880000782000901c8800e5
:1019780085c0a90095c0a8008de3a8000080fa00e2
:10198800000006000200fa00000f78000080fa004c
:10199800000006000000fa004382a9004362a90083
:1019a8004342a9004322a9004302a90042c2a80059
:1019b80042a2a80042e2a900212420009140780018
:1019c800c0cfb30000c060000014a00042e2b7001e
:1019d800212420009140780030ceb30000c0600080
:1019e800c040b30042e2b700d0a2a900d4a2a80028
:1019f800d462a90041e2a8000080fa0000000600b5
:101a08000000fa0020002000c01c8800f000200020
:101a1800101d8800a0002000d01c88008024200011
:101a2800001d880000762000e01c8800007420005b
:101a3800f01c88008700a9009700a80099e3a80077
:101a48000080fa00000006000000fa009002200062
:101a5800303a880044c7bf00f043b20044e7b700fb
:101a6800417420009140780000ceb30000c06000af
:101a780044e7b70040a7a900120020008107200012
:101a8800a00920003374200081497800804978003b
:101a980082497800120020006104200070052000af
:101aa80023742000814978008049780082497800b1
:101ab80043c7bf000047b200f04f5000fcff3a0098
:101ac80042c7bf000042b2000004e000fcff320041
:101ad8000080fa00000006000000fa00113a8000b9
:101ae800f0fb2f00008160006104200070052000d9
:101af8002374200081497800804978008249780061
:101b0800416a20009140780000ceb30000c0600018
:101b18006040b300a4e6b700816a200091407800d5
:101b280000ceb30000c060009041b300a8e6b70043
:101b3800316d20009140780000ceb30000c06000f5
:101b48003040b300d3e6b700716d200091407800b3
:101b580000ceb30000c060007040b300d7e6b70005
:101b6800816c20009140780000ceb30000c0600076
:101b78000034a000c8e6b700113a80000004200035
:101b8800008170006104200070052000237420008b
:101b9800814978008049780082497800c042a900cc
:101ba800c082a900d0a2a900d0c2a900c8c2a800ba
:0c1bb800c922a8000080fa00000006000e
:020000040000fa
:101bc400944600000a000000020000002d3132009b
:101bd400333435003637cd00ab0000000008000078
:101be400943e0000000000009e4600000600000035
:101bf400020000000000000000000000e0470000b8
:101c04002000000000000000c04700002000000089
:101c140000000000a04700002000000000000000b9
:101c24008047000020000000000000006047000022
:101c340020000000000000004047000020000000d9
:081c4400000000000000000098
:00000001FF
