:020000040000fa
:080000000002040000000000f2
:020000040000fa
:100400004fc420000e7f24000e0188000000000071
:100410000c0007008053200001002000110007009d
:10042000000020000000e000020032000000020096
:1004300000000000a6030200000000000040da00f7
:100440000000fe004440a900000020000000e00081
:100450000300320000002000a00188004440a800f2
:100460000000060091018800800078000000eb0089
:1004700015003700e280400032a0b4009101ba00bc
:10048000e280400032a0b4009102ba00e280400055
:1004900032a0b4000002eb00472bde00f507b200eb
:1004a000602ce10004003a000059eb008301e900f0
:1004b000fdff3e00040037006128e100010032002a
:1004c0000082eb00040007001101ba000200e00006
:1004d000e8ff3a00000006003159ba008301e90044
:1004e0000c0032002159ba008301e90008003200f3
:1004f0000400e00003003a00e280400032a0b400b3
:10050000f5ff370011d9ba008301e900faff3a007c
:100510008100e800e180400032a0b4000000060045
:080520000040da000000fe00bb
:020000040000fa
:0200000401f009
:04000c00f8ff0000f9
:020000040000fa
:0200000401f009
:040010007fff00006e
:020000040000fa
:0200000401f009
:040014007fff00006a
:020000040000fa
:1000080090020000900200009002000090020000a0
:100018009002000090020000900200009002000090
:10002800900200009002000090020000a40200006c
:100038009002000090020000900200009002000070
:100048009002000090020000900200009002000060
:100058009002000090020000900200009002000050
:100068009002000090020000900200009002000040
:100078009002000090020000900200009002000030
:100088009002000090020000900200009002000020
:100098009002000090020000900200009002000010
:1000a8009002000090020000900200009002000000
:1000b80090020000900200009002000090020000f0
:1000c80090020000900200009002000090020000e0
:1000d80090020000900200009002000090020000d0
:1000e80090020000900200009002000090020000c0
:1000f80090020000900200009002000090020000b0
:10010800900200009002000090020000900200009f
:10011800900200009002000090020000900200008f
:10012800900200009002000090020000900200007f
:10013800900200009002000090020000900200006f
:10014800900200009002000090020000900200005f
:10015800900200009002000090020000900200004f
:10016800900200009002000090020000900200003f
:10017800900200009002000090020000900200002f
:10018800900200009002000090020000900200001f
:10019800900200009002000090020000900200000f
:1001a80090020000900200009002000090020000ff
:1001b80090020000900200009002000090020000ef
:1001c80090020000900200009002000090020000df
:1001d80090020000900200009002000090020000cf
:1001e80090020000900200009002000090020000bf
:0801f8009002000090020000db
:020000040000fa
:10020800900200009002000090020000900200009e
:10021800900200009002000090020000900200008e
:10022800900200009002000090020000a40200006a
:10023800900200009002000090020000900200006e
:10024800900200009002000090020000900200005e
:10025800900200009002000090020000900200004e
:10026800900200009002000090020000900200003e
:10027800900200009002000090020000900200002e
:10028800900200009002000090020000900200001e
:10029800900200009002000090020000900200000e
:1002a80090020000900200009002000090020000fe
:1002b80090020000900200009002000090020000ee
:1002c80090020000900200009002000090020000de
:1002d80090020000900200009002000090020000ce
:1002e80090020000900200009002000090020000be
:1002f80090020000900200009002000090020000ae
:10030800900200009002000090020000900200009d
:10031800900200009002000090020000900200008d
:10032800900200009002000090020000900200007d
:10033800900200009002000090020000900200006d
:10034800900200009002000090020000900200005d
:10035800900200009002000090020000900200004d
:10036800900200009002000090020000900200003d
:10037800900200009002000090020000900200002d
:10038800900200009002000090020000900200001d
:10039800900200009002000090020000900200000d
:1003a80090020000900200009002000090020000fd
:1003b80090020000900200009002000090020000ed
:1003c80090020000900200009002000090020000dd
:1003d80090020000900200009002000090020000cd
:1003e80090020000900200009002000090020000bd
:0803f8009002000090020000d9
:020000040000fa
:1005280081e0a90042c0bf007f40600042e0b70000
:100538000000060000ceb3004260b70000000600cd
:10054800809fbe00c4c2bf004200de0061006000a0
:100558000004a2004200dd00412c200091407800f8
:100568000124a10080c0700001007800c4e2b70037
:100578008460a9004f00be0000400600833e2000b2
:10058800823e20000000e000040034008000eb0000
:100598008100e800810f5000fdff3a000201e900e8
:1005a800f8ff3a008301e900f5ff3a0003007800fc
:1005b80000000600d4a2a9000000fb004012880039
:1005c8000000eb000000e800fe0f5000fdff3a00bd
:1005d8000100fb0040128800d4a2a8000000060019
:1005e800d4a2a90020ff2f004012880062852000b5
:1005f800f4ceb300c3852000401280000059780073
:10060800c4c2bf004400de00610060000004a20014
:100618004400dd00412c20009140780084c0600037
:1006280080c0700001007800c4e2b700830f510059
:10063800f1ff3a00d4a2a80000000600889fbe007f
:10064800be0007006f000700c042a900c082a900d1
:1006580040012000c9ff0700c4c2bf004200de00fd
:10066800610060000004a2004200dd00412c20006f
:1006780091407800b9cfb30089c0600080c0700095
:1006880001007800c4e2b700c4c2bf004400de0025
:10069800610060000004a2004400dd00412c20003d
:1006a80091407800f8ceb30088c0600080c0700028
:1006b80001007800c4e2b70040012000afff070046
:1006c800c4c2bf004200de00610060000004a20056
:1006d8004200dd00412c20009140780089c0600074
:1006e80080c0700001007800c4e2b700c4c2bf0037
:1006f8004400de00610060000004a2004400dd0048
:10070800412c20009140780088c0600080c07000b3
:100718008000fd00c4e2b7008000fd0085ff0700ef
:1007280040002000a300070010002000650007001b
:10073800b70007007aff07000000eb004f04be0077
:1007480000000600bdff070021c0b30010c3b300be
:1007580098ff0700a1c0b300c0c2b30095ff07000f
:1007680081c0b300d0c2b30092ff07009cff07000e
:10077800708520009002fb004828dd00618520007c
:100788001102fb0004007000a04288009085200040
:100798009001fb004818dd00818520001101fb0055
:1007a8000200700090428800b085200090437800d5
:1007b800a0852000104378004838dd008600fb0043
:1007c80001007000804288002411880025118800eb
:1007d800221188002311880023c2bf000008a3004b
:1007e800fdff32000600fb00201188000700fb0017
:1007f8002011880023c2bf000008a300fdff3200bb
:10080800daff3700103a80000060a100630420007e
:1008180072052000217420008348780082487800ff
:1008280080487800a4c6bf0001ceb3000140600034
:100838005040b300a4e6b700a6c6bf000140600060
:100848000024a000a6e6b700a8c6bf0001406000cb
:100858008041b300a8e6b700c6c6bf0001406000eb
:100868003040b300c6e6b700c8c6bf00014060000c
:100878005040b300c8e6b700c9c6bf0001406000d9
:100888007040b300c9e6b700d9c6bf000140600098
:100898000034a000d9e6b700d5c6bf00014060000b
:1008a8009040b300d5e6b700103a80000060a00081
:1008b80021742000834878008248780080487800b6
:1008c800000006002002a90020c2bf0091cfb3009b
:1008d8000140600020e2b70020a2a9002062a90020
:1008e800000420004011880021e2a8002342a8004b
:1008f80022c2bf00f043b20022e2b70000000500a8
:100908003002a90030c2bf0091cfb300014060009f
:1009180030e2b70030a2a9003062a900000420002c
:10092800c011880031e2a8003342a80032c2bf00db
:10093800f043b20032e2b700000005009002200048
:10094800303a880044c7bf00f043b20044e7b7001c
:1009580044c7bf0001ceb3000140600044e7b700c0
:1009680012002000a1092000800720003374200015
:100978008049780081497800824978007105200013
:1009880060042000237420008049780081497800a1
:100998008249780043c7bf000047b200f04f5000bb
:1009a800fcff3a0042c7bf000058a300fdff320019
:1009b800000005000001780005e1a9000421a90054
:1009c80004c1a90000c3b3000461b7000021ef000f
:1009d80021a1270011088800674061004400dd005c
:1009e800510a200091407800f2c8b30082c060002c
:1009f80080c0700001007800a5e0b7008460a900fd
:100a08009460a80005e1a800100880000000060016
:100a18004382a9004362a9004342a9004322a900d6
:100a28004302a90042c2a90042a2a80042e2a900ca
:100a380042c2bf00c1cfb300014060000004a00063
:100a480042e2b70042c2bf0031ceb30001406000ad
:100a58004041b30042e2b700d0a2a900d4a2a80046
:080a680041e2a80000000500b6
:020000040000fa
:100a700050080000f4030000000000000000000027
:00000001FF
