:020000040000fa
:080000000002040000000000f2
:020000040000fa
:10040000ef8420000e7f24000e0188000000000011
:100410000c000700807a2000010020001100070076
:10042000000020000000e000020032000000020096
:100430000000000094060200000000000040da0006
:100440000000fe004440a900000020000000e00081
:100450000300320000002000a00188004440a800f2
:100460000000060091018800800078000000eb0089
:1004700015003700e280400032a0b4009101ba00bc
:10048000e280400032a0b4009102ba00e280400055
:1004900032a0b4000002eb00472bde00f507b200eb
:1004a000602ce10004003a000059eb008301e900f0
:1004b000fdff3e00040037006128e100010032002a
:1004c0000082eb00040007001101ba000200e00006
:1004d000e8ff3a00000006003159ba008301e90044
:1004e0000c0032002159ba008301e90008003200f3
:1004f0000400e00003003a00e280400032a0b400b3
:10050000f5ff370011d9ba008301e900faff3a007c
:100510008100e800e180400032a0b4000000060045
:100520000040da000000fe00889fbe008a9fbe00e7
:10053000010578000100e0000400350008003c00df
:100540000000e000200032000500370060001000cd
:10055000e080180002003b0001f02c001a00370078
:100560000004be006011b8006b0920000982cf00b2
:10057000020039000882cf000441b00069425200f5
:100580000e00320008003b008281710061016400ae
:100590008904d1000884d3008b05e8000442e800f8
:1005a000f9ff3a00050037000804440089844c0034
:1005b0008b05e9000442e900fbff3a0099000700bf
:1005c0000af0a70001f0a0004f05be004f04be00d6
:1005d0000000060003f0a200889fbe008a9fbe00b4
:1005e0008c1f7800b5000700bc0033006450e100a8
:1005f0004f0032006420e1005200320003826c00a0
:1006000007003b000905d0000306d000820f54000c
:100610000c065d00020039000200320089017800fa
:10062000030678008582550004003d000003fd00ac
:100630008103fd008502ea008b854200840f720071
:1006400002003b0060001000e08018006011b8005c
:100650000005eb007a28e1000a0039000600780066
:10066000c75ddd00f707b200878075002d003700f9
:10067000828171000a017800610560008180d100eb
:100680000080d3008502e900f9ff3b00060440002a
:100690008784480002003b0060041400e0841c00d2
:1006a0000988a300070032008a81710082817100ed
:1006b000610164008904d1000884d3008b05e8003f
:1006c000170037000978a30013003a000b00e00080
:1006d000130034008b05e9000804440089844c00b1
:1006e0000a4474000978a3000d003a000b00e000f2
:1006f000070034008b05e9000804440089844c009d
:1007000001003a000b0020000978a300f7ff320037
:100710000001eb0002003700828171000a017800bd
:10072000400007000cf0a70001f0a00074003700a3
:100730006420e10002003a00838f6c0074003300f3
:100740000801be000200be006d003700889fbe0099
:100750008a9fbe008c1f7800580007005f0033009e
:1007600003866c006450e100240032006420e10044
:10077000270032006150e100220032006120e100d8
:10078000210032008b854200eb07b1000134b80034
:10079000003ab8000804420089844a00013ab800cf
:1007a0000030b8008880400009014a00040033008e
:1007b0000000400081804800020149008b05e900eb
:1007c000c909dd0083017000010032001300200020
:1007d000c814de004814dd004709de001200b20034
:1007e000c808de00088470000e00070001f0a100b8
:1007f0000cf0a70001f0a000410037006120e100eb
:10080000430032000801be000200be00f7ff3700bf
:100810006150e100fcff3a003d0037001400200069
:100820003e00370081002000618055000b003d0034
:100830000b00200061fe2f000100e1001d003400cc
:1008400082817100610164008904d1000884d300b1
:100850000000e800faff3a00710020006100640027
:1008600003007000020060000900320061044400cf
:10087000e0844c000988a500050032008b05e800e3
:100880006808e10002003a008904d1000884d3001e
:10089000f20f20000258e10005003d00c75ddd00b9
:1008a000f907b20089807500080078000000060092
:1008b0000bf827008b007800000005000004be0044
:1008c000310007000003be000405be000200be00a8
:1008d0002d000700844f7500000006000200be00d6
:1008e0006450e100050036006420e100020036009b
:1008f0000968a30001003a000800be000160a000e2
:100900004f0678004f05be004f04be0000000600f1
:10091000f0ff2f00f1ff2700f9ff3700889fbe008e
:100920008a9fbe00841f7800e4ff07004f00780014
:1009300011003300f0ff2f00838f6c0006003b0096
:10094000040565000a00a7000800370009f0a600aa
:100950001000200008003700820f5400838f5c00d5
:10096000030039001000200001003e0000002000bc
:1009700009f0a7000000ea004f05be004f04be00ca
:100980000000e00000000600c70ade00f107b20028
:10099000f50fb20008003200e1cf42000200320041
:1009a0000170a00024000500810f700001003200da
:1009b0000408050044000500810f700002003a00a1
:1009c000140005008502e9000000400081c04800d5
:0c09d000fcff3b000170a00024000500ab
:020000040000fa
:0200000401f009
:04000c00f8ff0000f9
:020000040000fa
:0200000401f009
:040010007fff00006e
:020000040000fa
:1000080090020000900200009002000090020000a0
:100018009002000090020000900200009002000090
:10002800900200009002000090020000ee04000020
:100038009002000090020000900200009002000070
:10004800900200009002000090020000e20500000b
:100058009002000090020000900200009002000050
:100068009002000090020000900200009002000040
:100078009002000090020000900200009002000030
:100088009002000090020000900200009002000020
:100098009002000090020000900200009002000010
:1000a8009002000090020000900200009002000000
:1000b80090020000900200009002000090020000f0
:1000c80090020000900200009002000090020000e0
:1000d80090020000900200009002000090020000d0
:1000e80090020000900200009002000090020000c0
:1000f80090020000900200009002000090020000b0
:10010800900200009002000090020000900200009f
:10011800900200009002000090020000900200008f
:10012800900200009002000090020000900200007f
:10013800900200009002000090020000900200006f
:10014800900200009002000090020000900200005f
:10015800900200009002000090020000900200004f
:10016800900200009002000090020000900200003f
:10017800900200009002000090020000900200002f
:10018800900200009002000090020000900200001f
:10019800900200009002000090020000900200000f
:1001a80090020000900200009002000090020000ff
:1001b80090020000900200009002000090020000ef
:1001c80090020000900200009002000090020000df
:1001d80090020000900200009002000090020000cf
:1001e80090020000900200009002000090020000bf
:0801f8009002000090020000db
:020000040000fa
:10020800900200009002000090020000900200009e
:10021800900200009002000090020000900200008e
:10022800900200009002000090020000ee0400001e
:10023800900200009002000090020000900200006e
:10024800900200009002000090020000e205000009
:10025800900200009002000090020000900200004e
:10026800900200009002000090020000900200003e
:10027800900200009002000090020000900200002e
:10028800900200009002000090020000900200001e
:10029800900200009002000090020000900200000e
:1002a80090020000900200009002000090020000fe
:1002b80090020000900200009002000090020000ee
:1002c80090020000900200009002000090020000de
:1002d80090020000900200009002000090020000ce
:1002e80090020000900200009002000090020000be
:1002f80090020000900200009002000090020000ae
:10030800900200009002000090020000900200009d
:10031800900200009002000090020000900200008d
:10032800900200009002000090020000900200007d
:10033800900200009002000090020000900200006d
:10034800900200009002000090020000900200005d
:10035800900200009002000090020000900200004d
:10036800900200009002000090020000900200003d
:10037800900200009002000090020000900200002d
:10038800900200009002000090020000900200001d
:10039800900200009002000090020000900200000d
:1003a80090020000900200009002000090020000fd
:1003b80090020000900200009002000090020000ed
:1003c80090020000900200009002000090020000dd
:1003d80090020000900200009002000090020000cd
:1003e80090020000900200009002000090020000bd
:0803f8009002000090020000d9
:020000040000fa
:1009dc003600f800809fbe00829fbe00849fbe0040
:1009ec00869fbe00881f78000400fa00104080002b
:1009fc000000e00006003a001000200010408800c3
:100a0c00c442a800cd22a800304080001008880005
:100a1c0010408000e10f50005e003a000000eb0037
:100a2c001040880038c8bf000004e0000b00320002
:100a3c0038c8bf000040e90038e8b700c442a9003c
:100a4c00cd22a90031408000400d23000100500050
:100a5c00100888008460a9004f003700c442a90028
:100a6c00cd22a90031408000400d23000100500030
:100a7c001008880070c1b30036e8b70050c0b3004e
:100a8c0037e8b700100320002011880036c8bf00db
:100a9c000004e000fdff3a00c4c2bf000080fb0070
:100aac004400de006140600000c0ea00614060006c
:100abc00614060004401dd00412c20009140780031
:100acc00f0ceb30000c0600002407000c4e2b7007a
:100adc00cdc2bf000080fb000000d100614060006f
:100aec0000c0ea00614060006140600000414000cd
:100afc00d12c200091407800d0cfb30000c0600012
:100b0c0002407000cde2b70050408000c800dd000c
:100b1c006040800000807000d0418800d841800087
:100b2c006140b9007dfe0700008fbe000800e000a8
:100b3c0005003d0002002000037824001e00be00ca
:100b4c00a2fe0700008fbe0002ea2f0033bb230079
:100b5c001e00be00fafe0700004288001142880009
:100b6c00004280001142800002002000432b240030
:100b7c0027ff07000000e0000100350003003700ec
:100b8c00004b200030408800020037000025200078
:100b9c00304088008460a9000080fa004f0478007f
:100bac004f03be004f02be004f01be004f00be00ff
:100bbc003600f90000400600809fbe00829fbe00f8
:100bcc000000fa0037c8bf000004e0003400320017
:100bdc002f00370063832000934178000380fb00d3
:100bec0077001000321180008000400080802000cf
:100bfc0000804000020878000340e90036e8b700a6
:100c0c0063832000934178000380fb007700100081
:100c1c003211800080004000808020000080400065
:100c2c00020878000340e90036e8b700638320002f
:100c3c00934178000380fb00770010003211800094
:100c4c008000400080802000008040000208780076
:100c5c000340e90036e8b700638320009341780035
:100c6c000380fb00770010003211800080004000f0
:100c7c008080200000804000020878000340e900da
:100c8c0036e8b70037c8bf000040e90037e8b700c6
:100c9c0022c2bf00614060000004e000cdff3a00ba
:100cac0037c8bf000004e00017003a0036c8bf0088
:100cbc00e34f500014003a00100037002202a80045
:100ccc0022c2bf00614060000004e0000b00320053
:100cdc0063832000934178000380fb0077001000b1
:100cec003211800080004000808020000080400095
:100cfc00020878000340e90036e8b70036c8bf00a8
:100d0c000004e000edff3a008560a9000080fa00c5
:100d1c004f01be004f00be00004006000000fa006c
:100d2c0048000700c042a900c082a900c922a9003e
:100d3c001027200030408800210007000200070027
:100d4c0064000700ffff37000000fa002002a90032
:100d5c00012220009140780090cfb30000c06000c9
:100d6c0020e2b70020a2a9002062a9000004200004
:100d7c004011880021e2a8002342a8002122200073
:100d8c009140780000ccb30000c0700022e2b700a4
:100d9c00910a200091407800f0c8b30000c06000b8
:100dac0001c6b30001407000a9e0b7008560a9003e
:100dbc009560a8000000eb000080fa00000006001f
:100dcc000000fa00113a8000f0fb2f000081600057
:100ddc0061042000700520002374200081497800f4
:100dec008049780082497800416a2000914078005f
:100dfc0000ceb30000c06000b040b300a4e6b70062
:100e0c00c16c20009140780000ceb30000c060009f
:100e1c003040b300cce6b700113a8000000420004b
:100e2c0000817000610420007005200023742000f4
:100e3c008149780080497800824978000080fa0066
:100e4c00000006000000fa0090022000303a8800f2
:100e5c0044c7bf00f043b20044e7b7004174200020
:100e6c009140780000ceb30000c0600044e7b700aa
:100e7c001200200081072000a009200033742000fc
:100e8c00814978008049780082497800120020005e
:100e9c006104200070052000237420008149780033
:100eac00804978008249780043c7bf000047b200f0
:100ebc00f04f5000fcff3a0042c7bf000042b200a6
:100ecc000004e000fcff32000000eb000080fa00a0
:100edc00000006000000fa0005e1a9000421a900a9
:100eec0004c1a9004110200091407800f0ccb3005f
:100efc0000c0600001c2b3000140700004e1b70003
:100f0c000000eb0000088800102720001008880063
:100f1c00510a200091407800f0c8b30000c0600076
:100f2c0001c5b30001407000a5e0b7008460a900c2
:100f3c009460a80005e1a8000000eb000080fa0016
:040f4c00000006009b
:020000040000fa
:100f5000380800001400000002000000100000002b
:100f60000000000000000000000000000000000081
:100f70000000000000000000000800003800000031
:100f8000000000004c08000002000000000000000b
:040f9000000000005d
:00000001FF
