:020000040000fa
:080000000002040000000000f2
:020000040000fa
:100400004f8020000e7724000e01880000000000bd
:100410000c000700404f20000100200011000700e1
:10042000000020000000e000020032000000020096
:1004300000000000dc040200000000000040da00c0
:100440000000fe004440a900000020000000e00081
:100450000300320000002000a00188004440a800f2
:100460000000060091018800800078000000eb0089
:1004700015003700e280400032a0b4009101ba00bc
:10048000e280400032a0b4009102ba00e280400055
:1004900032a0b4000002eb00472bde00f507b200eb
:1004a000602ce10004003a000059eb008301e900f0
:1004b000fdff3e00040037006128e100010032002a
:1004c0000082eb00040007001101ba000200e00006
:1004d000e8ff3a00000006003159ba008301e90044
:1004e0000c0032002159ba008301e90008003200f3
:1004f0000400e00003003a00e280400032a0b400b3
:10050000f5ff370011d9ba008301e900faff3a007c
:100510008100e800e180400032a0b4000000060045
:080520000040da000000fe00bb
:020000040000fa
:0200000401f009
:04000c00f8ff0000f9
:020000040000fa
:0200000401f009
:040010007fff00006e
:020000040000fa
:0200000401f009
:040014007fff00006a
:020000040000fa
:1000080090020000900200009002000090020000a0
:100018009002000090020000900200009002000090
:1000280090020000900200009002000034040000da
:100038005c040000900200009002000090020000a2
:100048009002000090020000900200009002000060
:1000580090020000900200008e0400009002000050
:100068009002000090020000900200009002000040
:100078009002000090020000900200009002000030
:100088009002000090020000900200009002000020
:100098009002000090020000900200009002000010
:1000a8009002000090020000900200009002000000
:1000b80090020000900200009002000090020000f0
:1000c80090020000900200009002000090020000e0
:1000d80090020000900200009002000090020000d0
:1000e80090020000900200009002000090020000c0
:1000f80090020000900200009002000090020000b0
:10010800900200009002000090020000900200009f
:10011800900200009002000090020000900200008f
:10012800900200009002000090020000900200007f
:10013800900200009002000090020000900200006f
:10014800900200009002000090020000900200005f
:10015800900200009002000090020000900200004f
:10016800900200009002000090020000900200003f
:10017800900200009002000090020000900200002f
:10018800900200009002000090020000900200001f
:10019800900200009002000090020000900200000f
:1001a80090020000900200009002000090020000ff
:1001b80090020000900200009002000090020000ef
:1001c80090020000900200009002000090020000df
:1001d80090020000900200009002000090020000cf
:1001e80090020000900200009002000090020000bf
:0801f8009002000090020000db
:020000040000fa
:10020800900200009002000090020000900200009e
:10021800900200009002000090020000900200008e
:1002280090020000900200009002000034040000d8
:100238005c040000900200009002000090020000a0
:10024800900200009002000090020000900200005e
:1002580090020000900200008e040000900200004e
:10026800900200009002000090020000900200003e
:10027800900200009002000090020000900200002e
:10028800900200009002000090020000900200001e
:10029800900200009002000090020000900200000e
:1002a80090020000900200009002000090020000fe
:1002b80090020000900200009002000090020000ee
:1002c80090020000900200009002000090020000de
:1002d80090020000900200009002000090020000ce
:1002e80090020000900200009002000090020000be
:1002f80090020000900200009002000090020000ae
:10030800900200009002000090020000900200009d
:10031800900200009002000090020000900200008d
:10032800900200009002000090020000900200007d
:10033800900200009002000090020000900200006d
:10034800900200009002000090020000900200005d
:10035800900200009002000090020000900200004d
:10036800900200009002000090020000900200003d
:10037800900200009002000090020000900200002d
:10038800900200009002000090020000900200001d
:10039800900200009002000090020000900200000d
:1003a80090020000900200009002000090020000fd
:1003b80090020000900200009002000090020000ed
:1003c80090020000900200009002000090020000dd
:1003d80090020000900200009002000090020000cd
:1003e80090020000900200009002000090020000bd
:0803f8009002000090020000d9
:020000040000fa
:100528000000fa0090022000303a880044c7bf005b
:10053800f043b20044e7b7004174200091407800ce
:1005480000ceb30000c0600044e7b70040a7a90090
:100558001200200081072000a00920003374200029
:10056800814978008049780082497800120020008b
:100578006104200070052000237420008149780060
:10058800804978008249780043c7bf000047b2001d
:10059800f04f5000fcff3a0042c7bf000042b200d3
:1005a8000004e000fcff32000080fa0000000600b2
:1005b8000000fa00113a8000f0fb2f000081600073
:1005c8006104200070052000237420008149780010
:1005d8008049780082497800416a2000914078007b
:1005e80000ceb30000c060005040b300a4e6b700de
:1005f800616a20009140780000ceb30000c060001e
:100608000024a000a6e6b700816a20009140780087
:1006180000ceb30000c060008041b300a8e6b70078
:10062800616c20009140780000ceb30000c06000eb
:100638003040b300c6e6b700816c200091407800d6
:1006480000ceb30000c060005040b300c8e6b70059
:10065800916c20009140780000ceb30000c060008b
:100668007040b300c9e6b700916d20009140780052
:1006780000ceb30000c060000034a000d9e6b70087
:10068800516d20009140780000ceb30000c060009a
:100698009040b300d5e6b700113a8000000420006e
:1006a8000081700061042000700520002374200080
:1006b800814978008049780082497800c042a900c1
:1006c800c082a9000080fa00000006000200fa00bb
:1006d800000f780005e1a9000421a90004c1a900c0
:1006e800411020009140780000c3b30000c07000a2
:1006f80004e1b7000000eb000008880020a12700f3
:10070800100888001e00780067406000674060009d
:100718004401dd00510a200091407800f0c8b30080
:1007280000c0600002407000a5e0b7008460a90026
:100738009460a80005e1a8000080fa000000060007
:100748000200fa00000f78002002a9000122200010
:100758009140780090cfb30000c0600020e2b7005d
:1007680020a2a9002062a9000004200040118800ee
:1007780021e2a8002342a8000080fa000000060039
:100788000200fa00000f78003002a90001232000bf
:100798009140780090cfb30000c0600030e2b7000d
:1007a80030a2a9003062a90000042000c01188000e
:1007b80031e2a8003342a8000080fa0000000600d9
:1007c8000000fa0020002000001c8800f000200033
:1007d800501c8800b0002000101c880060222000f7
:1007e800401c8800007e2000201c8800007c20001f
:1007f800301c88008480a9009480a80081e3a800a8
:100808000080fa00000006000000fa002000200026
:10081800601c8800f0002000b01c8800e001200067
:10082800701c880060232000a01c8800007a20002b
:10083800801c880000782000901c880085c0a900d2
:1008480095c0a8008de3a8000080fa00000006000b
:100858000200fa00000f78000080fa00000006008d
:10086800801f78000000fa0030052000a0118800e1
:1008780033c2bf00614060000004e000fcff3200aa
:10088800d00420002011880023c2bf00614060000e
:100898000004e000fcff3200400220004012880003
:1008a8008460a9000080fa004f007800004006002c
:1008b800809fbe00821f78000000fa000040800080
:1008c8000000a20000408800c4c2bf000080fb00f6
:1008d8004200de006140600000c0ea006140600044
:1008e800614060004201dd00412c20009140780009
:1008f800b0cfb30000c0600002407000c4e2b7008f
:100908008480a9000080fa004f0178004f00be00e3
:1009180000400600809fbe00821f78000000fa0099
:10092800104080000000a20010408800c4c2bf0030
:100938000080fb004400de006140600000c0ea0067
:1009480061406000614060004401dd00412c2000ee
:1009580091407800f0ceb30000c060000240700003
:10096800c4e2b70085c0a9000080fa004f017800f2
:100978004f00be00004006000000fa0081e0a80019
:1009880042c0bf007f40600042e0b7000080fa002c
:10099800000006000000fa0042c0bf0001ceb3000c
:1009a8000140700042e0b7000080fa000000060035
:1009b8000000fa00dafe0700fdfe070040002000f4
:1009c80042ff0700400020005dff070040002000b4
:1009d8006bff07007aff07008bff0700ffff370058
:020000040000fa
:1009e800e04700002000000000000000c0470000b1
:1009f8002000000000000000a047000020000000c8
:100a080000000000804700002000000000000000f7
:100a180000080000040000000200000000000000c0
:080a28000000000000000000c6
:00000001FF
